:1000000046C000006BC0000069C0000067C000006F
:1000100065C0000063C0000061C000005FC0000058
:100020005DC000005BC00000D0C3000057C00000EE
:100030006CC6000053C0000051C000004FC000005B
:100040004DC000004BC0000049C0000047C0000088
:1000500045C0000043C0000041C000003FC0000098
:100060003DC000003BC0000039C0000037C00000A8
:1000700035C0000033C0000031C000002FC00000B8
:100080002DC000002BC0000029C00000660711240D
:100090001FBECFEFD0E1DEBFCDBF11E0A0E0B1E0E9
:1000A000EEEEFEE000E00BBF02C007900D92A83715
:1000B000B107D9F721E0A8E7B1E001C01D92A4394A
:1000C000B207E1F710E0C7E4D0E003C02197FE01DA
:1000D00003D7C634D107D1F72AD307C791CF0197E9
:1000E00099F46F3F7F4F81F4EFE8F1E011821082C5
:1000F00081E090E0938382838483E6E8F1E082E00C
:1001000090E09183808312820895662351F021E06C
:1001100030E0A90102C0440F551F8A95E2F7CA01D9
:10012000089580E090E008958A30910510F4C0961B
:10013000089580E090E00895662311F02FEF01C04C
:1001400020E08230910599F02CF4009751F001974E
:1001500059F008958430910581F064F0059781F09D
:1001600008952ABB1BBA089527BB18BA089524BB6B
:1001700015BA089521BB12BA089522B913B808958B
:10018000209361001092620008958130910509F476
:1001900049C01CF4892B41F008958230910519F172
:1001A000039709F464C008956730710559F461E05C
:1001B00080E090E0AADF97B7890F87BF87E083BF11
:1001C00012BE08956630710509F082C061E081E0D9
:1001D00090E09BDF97B7890F87BF8FE083BF12BE88
:1001E0008FEF81BF08956730710559F461E086E0B3
:1001F00090E08BDF97B7890F87BF85E085BD14BC82
:1002000008956630710509F063C061E087E090E011
:100210007CDF97B7890F87BF8DE085BD14BC8FEF5A
:1002200083BD08956730710569F461E082E090E074
:100230006CDF97B7890F87BF1FBC85E08EBD1DBCE3
:100240001CBC08956630710509F042C061E084E08D
:1002500090E05BDF97B7890F87BF1FBC8DE08EBD35
:100260001DBC1CBC8DE38BBD89E08ABD0895673041
:10027000710599F461E082E090E047DFEDE7F0E09E
:100280009081890F808310928B0085E080938A0093
:100290001092890010928800089566307105C1F4AB
:1002A00061E084E090E031DFEDE7F0E09081890FDC
:1002B000808310928B008DE080938A0010928900D9
:1002C000109288008DE38093870089E080938600F8
:1002D0000895FC018081918182309105B9F028F464
:1002E000009751F0019769F024C084309105C1F066
:1002F00090F00597D1F01DC089B390E0948383837B
:1003000018C086B390E09483838313C083B390E0D6
:10031000948383830EC080B390E09483838309C069
:1003200081B190E09483838304C080B190E0948392
:1003300083838281882379F025813681838194812A
:1003400080959095822393239087878383819481DE
:1003500096838583089525813681838194818223C4
:10036000932390878783838194818095909596834A
:1003700085830895FC01808191818230910589F007
:1003800028F4009751F0019751F0089584309105B9
:1003900061F048F0059759F008956BBB089568BB6C
:1003A000089565BB089562BB089563B9089560938D
:1003B00062000895FC01828193818230910589F069
:1003C00028F4009751F0019751F008958430910579
:1003D00061F048F0059759F008956BBB089568BB2C
:1003E000089565BB089562BB089563B9089560934D
:1003F00062000895AF92BF92CF92DF92EF92FF9288
:100400000F931F93CF93DF93EC018B018C818111AC
:100410003FC061E087E090E078DE6C0160E087E05B
:1004200090E073DE5C018CEC9CE10197F1F700C079
:1004300000007801F594E794F594E794F594E79437
:10044000F594E7949FE0E922FF24B6016E297F2905
:10045000CE0190DF85E08A95F1F7B5016E297F29FD
:10046000CE0188DF95E09A95F1F70F701127B6015C
:10047000602B712BCE017EDF85E08A95F1F7B50107
:10048000602B712BCE0176DF95E09A95F1F71FC0B6
:1004900061E082E090E039DE6C0160E082E090E0B3
:1004A00034DE7C018CEC9CE10197F1F700C0000088
:1004B000B801CE017FDFB601CE015CDF95E09A95F1
:1004C000F1F7B701CE0156DF85E08A95F1F7DF91AC
:1004D000CF911F910F91FF90EF90DF90CF90BF9041
:1004E000AF900895AF92BF92CF92DF92EF92FF92BA
:1004F0000F931F93CF93DF93EC018B018C818111BC
:1005000047C061E087E090E000DE7C0161E085E0CB
:1005100090E0FBDD5C01E82AF92A60E087E090E0EA
:10052000F4DDA82AB92A8CEC9CE10197F1F700C010
:1005300000006801D594C794D594C794D594C79406
:10054000D594C7949FE0C922DD24B7016C297D2989
:10055000CE0110DF85E08A95F1F7B5016C297D2980
:10056000CE0108DF95E09A95F1F70F701127B701DA
:10057000602B712BCE01FEDE85E08A95F1F7B50187
:10058000602B712BCE01F6DE95E09A95F1F727C02E
:1005900061E082E090E0B9DD6C0161E080E090E034
:1005A000B4DD7C01C82AD92A60E082E090E0ADDDAC
:1005B000E82AF92A8CEC9CE10197F1F700C00000D1
:1005C000B801CE01F7DEB601CE01D4DE95E09A95F2
:1005D000F1F7B701CE01CEDE85E08A95F1F7DF9124
:1005E000CF911F910F91FF90EF90DF90CF90BF9030
:1005F000AF9008950F931F93CF93DF938C01EB017E
:100600006881662329F070E0C8016CDF2196F8CF7D
:10061000DF91CF911F910F910895CF92DF92EF92CA
:10062000FF920F931F93CF93DF936C018B017A019D
:10063000C0E0D0E0C031D105ECF40130110559F42F
:10064000CE0101968E159F0531F4BE0160587F4F93
:10065000C601D0DE0DC00230110551F4CE01019665
:10066000E816F90629F4BE0160547F4FC601C2DEC8
:100670002196E0CFDF91CF911F910F91FF90EF90E6
:10068000DF90CF900895CF93DF93EC01693071052F
:10069000A1F441E050E061E070E0BFDF64E071E0B0
:1006A000CE01A8DF41E050E062E070E0CE01B5DFAE
:1006B00064E071E0CE019EDF19C06130710551F434
:1006C00041E050E061E070E0A8DF64E071E0CE015D
:1006D00091DF0CC06230710549F441E050E062E006
:1006E00070E09BDF64E071E0CE0184DFDF91CF91A9
:1006F0000895CF93DF93EC018C81811105C068E2EE
:1007000070E0CE0177DE04C068E370E0CE0172DEF7
:100710006CE070E0CE016EDE66E070E0CE016ADE75
:1007200061E070E0CE0166DEDF91CF91089561E077
:1007300080E090E001DD61E081E090E0FDDC60E0E0
:1007400082E090E0F9DC67E070E082E090E01DDD9F
:1007500066E070E081E090E018DD8FE891E0C9DFAD
:1007600078948CEC9CE10197F1F700C00000809137
:10077000020190910301019709F542E050E061E028
:1007800070E08FE891E049DF65E171E08FE891E08A
:1007900031DF4BE050E062E070E08FE891E03DDF58
:1007A00064E271E08FE891E025DF9FEF2FE78DE0B5
:1007B000915020408040E1F700C000008CEC9CE1AB
:1007C0000197F1F700C00000CCCF1F920F920FB637
:1007D0000F9211240BB60F922F933F934F935F9379
:1007E0006F937F938F939F93AF93BF93CF93DF9339
:1007F000EF93FF9386E891E06CDD80918D019091FD
:100800008E01892B09F46CC280918D0190918E012B
:100810008830910509F4E9C060F48230910509F44B
:1008200083C08430910509F486C0019709F058C24D
:1008300012C08032910509F464C120F4409709F494
:1008400010C14EC28034910509F4ABC180389105C6
:1008500009F4F7C145C21092030110920201809180
:100860008201909183018130910511F520918001E1
:1008700030918101232BE1F469E070E08FE891E091
:1008800002DF41E050E061E070E08FE891E0C5DE1A
:100890006BE271E08FE891E0ADDE81E090E0909353
:1008A000850180938401109201011092000118C209
:1008B000892B09F015C28091800190918101892BCB
:1008C00009F00EC269E070E08FE891E0DCDE41E003
:1008D00050E061E070E08FE891E09FDE64E371E05A
:1008E0008FE891E087DE42E050E062E070E08FE860
:1008F00091E093DE65E471E08FE891E07BDE2FEF1D
:100900008FEF93EB215080409040E1F700C0000052
:1009100069E070E08FE891E0B6DE81E090E09093CE
:10092000030180930201DCC181E090E0909301011A
:1009300080930001D5C110920301109202018091B1
:10094000820190918301892B09F0CAC180918001B5
:1009500090918101892B09F0C3C181E090E09093CF
:1009600081018093800169E070E08FE891E08BDE87
:1009700041E050E061E070E08FE891E04EDE65E537
:1009800071E08FE891E036DE4CE050E062E070E02C
:100990008FE891E042DE80917E0190917F01C4DB7F
:1009A000BC018FE891E09EDD80917C0190917D01FA
:1009B000BBDBBC018FE891E095DD6EE571E08FE86F
:1009C00091E018DE80917A0190917B01ADDBBC0152
:1009D0008FE891E087DD8091780190917901A4DB27
:1009E000BC018FE891E07EDD7BC180918201909116
:1009F0008301892B09F074C180918001909181015C
:100A0000019709F06DC1C1E0D0E0D0938301C0939C
:100A10008201109281011092800161E070E08FE804
:100A200091E031DE41E050E061E070E08FE891E07C
:100A3000F4DD60E671E08FE891E0DCDD2FEF8FEF11
:100A400099E5215080409040E1F700C0000069E046
:100A500070E08FE891E017DED0930301C0930201AC
:100A60003FC18091820190918301892B09F038C1A7
:100A70008091800190918101019709F031C18091AD
:100A80007E0190917F018530910531F00196909320
:100A90007F0180937E0104C010927F0110927E013D
:100AA0004CE050E062E070E08FE891E0B6DD8091CC
:100AB0007E0190917F0138DBBC018FE891E012DD6F
:100AC00080917C0190917D012FDBBC018FE891E04A
:100AD00009DD6EE571E08FE891E08CDD80917A01AF
:100AE00090917B0121DBBC018FE891E0FBDC8091E0
:100AF00078019091790118DBBC018FE891E0F2DC7C
:100B0000EFC08091820190918301892B09F0E8C0A8
:100B10008091800190918101019709F0E1C080915D
:100B20007C0190917D018930910531F0019690937F
:100B30007D0180937C0104C010927D0110927C01A4
:100B40004CE050E062E070E08FE891E066DD80917B
:100B50007E0190917F01E8DABC018FE891E0C2DC70
:100B600080917C0190917D01DFDABC018FE891E0FA
:100B7000B9DC6EE571E08FE891E03CDD80917A01AF
:100B800090917B01D1DABC018FE891E0ABDC8091E0
:100B9000780190917901C8DABC018FE891E0A2DC7C
:100BA0009FC08091820190918301892B09F098C0A8
:100BB0008091800190918101019709F091C080910D
:100BC0007A0190917B018530910531F001969093E7
:100BD0007B0180937A0104C010927B0110927A010C
:100BE0004CE050E062E070E08FE891E016DD80912B
:100BF0007E0190917F0198DABC018FE891E072DC70
:100C000080917C0190917D018FDABC018FE891E0A9
:100C100069DC6EE571E08FE891E0ECDC80917A01AF
:100C200090917B0181DABC018FE891E05BDC8091DF
:100C300078019091790178DABC018FE891E052DC7B
:100C40004FC08091820190918301892B09F048C0A7
:100C50008091800190918101019709F041C08091BC
:100C60007801909179018930910531F00196909346
:100C700079018093780104C0109279011092780173
:100C80004CE050E062E070E08FE891E0C6DC8091DB
:100C90007E0190917F0148DABC018FE891E022DC6F
:100CA00080917C0190917D013FDABC018FE891E059
:100CB00019DC6EE571E08FE891E09CDC80917A01AF
:100CC00090917B0131DABC018FE891E00BDC8091DF
:100CD00078019091790128DABC018FE891E002DC7B
:100CE000FF91EF91DF91CF91BF91AF919F918F9144
:100CF0007F916F915F914F913F912F910F900BBE1C
:100D00000F900FBE0F901F9018951F920F920FB665
:100D10000F9211240BB60F922F933F934F935F9333
:100D20006F937F938F939F93AF93BF93EF93FF93B3
:100D30008091840190918501019709F0B4C0809160
:100D4000000190910101892B09F09CC04CE050E01A
:100D500062E070E08FE891E060DC80917E0190912C
:100D60007F01E2D9BC018FE891E0BCDB80917C017E
:100D700090917D01D9D9BC018FE891E0B3DB6EE59C
:100D800071E08FE891E036DC80917A0190917B01EF
:100D9000CBD9BC018FE891E0A5DB809178019091DF
:100DA0007901C2D9BC018FE891E09CDB8091780188
:100DB000909179010197909379018093780199231B
:100DC0000CF071C089E090E09093790180937801F4
:100DD00080917A0190917B01019790937B018093A0
:100DE0007A0199230CF05FC085E090E090937B013D
:100DF00080937A0180917C0190917D01019790937D
:100E00007D0180937C0199230CF04DC089E090E036
:100E100090937D0180937C0180917E0190917F0170
:100E2000019790937F0180937E0199230CF03BC042
:100E300010927F0110927E0110927D0110927C0130
:100E400010927B0110927A01109279011092780130
:100E500061E070E08FE891E016DC41E050E061E095
:100E600070E08FE891E0D9DB6DE671E08FE891E00A
:100E7000C1DB1092850110928401109283011092BF
:100E8000820111C061E070E08FE891E0FCDB41E09D
:100E900050E061E070E08FE891E0BFDB62E771E075
:100EA0008FE891E0A7DBFF91EF91BF91AF919F9108
:100EB0008F917F916F915F914F913F912F910F9003
:100EC0000BBE0F900FBE0F901F9018956FEF7FEF26
:100ED00081E090E004C90895EE0FFF1F0024001C7C
:0E0EE0000BBE0790F691E02D0994F894FFCF19
:100EEE000100010020202020202020202020202072
:100EFE002020202000436F756E7465722053797325
:100F0E0074656D00627920434C4A00436F756E74B0
:100F1E00696E6700506C656173652050757368204B
:100F2E005357203300746F20536574207468652006
:100F3E0054696D65005365742054696D65003A00FF
:100F4E0053657420436F6D706C65746500446F6EED
:080F5E00650050617573650028
:00000001FF
