S012000041546D656761313238412E7372656307
S113000045C0000058C0000056C0000054C00000A5
S113001052C0000050C000004EC000004CC00000A0
S11300204AC0000048C0000046C0000044C00000B0
S113003042C0000040C000003EC000003CC00000C0
S11300403AC0000038C0000036C0000034C00000D0
S113005032C0000030C000002EC000002CC00000E0
S11300602AC0000028C0000026C0000024C00000F0
S113007022C0000020C000001EC000001CC0000000
S11300801AC0000018C0000016C0000011241FBED2
S1130090CFEFD0E1DEBFCDBF11E0A0E0B1E0EAE3F5
S11300A0F4E000E00BBF02C007900D92A432B10748
S11300B0D9F795D1C0C1A4CF22E030E02830310572
S11300C084F52817390751F5662311F04FEF01C065
S11300D040E02230310519F44ABB1BBA1FC023305B
S11300E0310519F447BB18BA19C02430310519F485
S11300F044BB15BA13C02530310519F441BB12BAFB
S11301000DC02630310519F442B913B807C02730A1
S1130110310521F440936100109262002F5F3F4F3C
S1130120CDCF089522E030E0283031054CF4261775
S1130130370719F4FC01318320832F5F3F4FF4CF3D
S1130140442331F028E030E0FC0133832283089516
S113015024E030E0FC01338322830895FC01808194
S113016091818230910511F46BBB08958330910520
S113017011F468BB08958430910511F465BB0895AA
S11301808530910511F462BB08958630910511F410
S113019063B90895079711F4609362000895662384
S11301A041F081E090E002C0880F991F4A95E2F780
S11301B0089580E090E00895AF92BF92CF92DF92CD
S11301C0EF92FF920F931F93CF93DF938C01EB0178
S11301D047E050E061E0E3DF7C0147E050E060E0AD
S11301E0C801DDDF6C018CEC9CE10197F1F700C0E4
S11301F000005E01B594A794B594A794B594A79410
S1130200B594A7949FE0A922BB24B7016A297B294E
S1130210C801A4DF85E08A95F1F7B6016A297B2934
S1130220C8019CDF95E09A95F1F7CF70DD27B701FF
S11302306C2B7D2BC80192DF85E08A95F1F7B6011E
S11302406C2B7D2BC8018ADF95E09A95F1F7DF913D
S1130250CF911F910F91FF90EF90DF90CF90BF90BF
S1130260AF900895AF92BF92CF92DF92EF92FF9238
S11302700F931F93CF93DF93EC018B0147E050E082
S113028061E08DDF7C0145E050E061E0CE0187DF75
S11302906C01E82AF92A47E050E060E0CE017FDFF4
S11302A0C82AD92A8CEC9CE10197F1F700C0000020
S11302B05801B594A794B594A794B594A794B5940C
S11302C0A7949FE0A922BB24B7016A297B29CE0108
S11302D045DF85E08A95F1F7B6016A297B29CE01CD
S11302E03DDF95E09A95F1F70F701127B701602B68
S11302F0712BCE0133DF85E08A95F1F7B601602BCF
S1130300712BCE012BDF95E09A95F1F7DF91CF9118
S11303101F910F91FF90EF90DF90CF90BF90AF901F
S113032008950F931F93CF93DF938C01EB016881A2
S1130330662329F070E0C80195DF2196F8CFDF919C
S1130340CF911F910F910895CF92DF92EF92FF9278
S11303500F931F93CF93DF936C018B017A01C0E05D
S1130360D0E0C031D105ECF40130110559F4CE01CF
S113037001968E159F0531F4BE0160587F4FC6016A
S11303801BDF0DC00230110551F4CE010196E816B1
S1130390F90629F4BE0160547F4FC6010DDF219692
S11303A0E0CFDF91CF911F910F91FF90EF90DF90FD
S11303B0CF900895CF93DF93EC0166E070E0FCDE0C
S11303C06CE070E0CE01F8DE68E270E0CE01F4DEAD
S11303D061E070E0CE01F0DEDF91CF910895CF931C
S11303E0DF9300D000D0CDB7DEB761E087E090E0C6
S11303F063DE40E067E070E0CE01019693DECE015B
S11304000196D8DF41E050E061E070E0CE01019652
S11304109BDF61E171E0CE01019683DF41E050E0B2
S113042062E070E0CE0101968FDF67E171E0CE01FA
S10D0430019677DFE7CFF894FFCFC1
S113043A20202020202020202020202020202020AE
S113044A00477265617400202020202020627920F0
S107045A434C4A00C1
S9030000FC
