:100000005BC0000080C000007EC000007CC000001B
:100010007AC0000078C0000076C0000074C0000004
:1000200072C0000070C000006EC000006CC0000014
:100030006AC0000068C0000066C0000064C0000024
:1000400062C0000060C000005EC000005CC0000034
:100050005AC0000058C0000056C0000054C0000044
:1000600052C0000050C000004EC000004CC0000054
:100070004AC0000048C0000046C0000044C0000064
:1000800042C0000040C000003EC00000DD00DF00B4
:10009000E100E300E500E700EA00F800FA00FC00F8
:1000A000FE00000102010501B901BC01BF01C2014E
:1000B000C501C801CD01CE0011241FBECFEFD0E194
:1000C000DEBFCDBF11E0A0E0B1E0EAEBF3E000E07D
:1000D0000BBF02C007900D92A030B107D9F721E005
:1000E000A0E0B1E001C01D92A730B207E1F710E037
:1000F000CCE5D0E003C02197FE0154D1CB35D10728
:10010000D1F721D058C17CCF019761F46F3F7F4F69
:1001100049F4E2E0F1E01182108281E090E0938303
:10012000828384830895806287B981E38A95F1F799
:10013000000086B1806486B9349BFECF86B18061B1
:1001400086B985B1089561E080E090E006D161E074
:1001500081E090E002D161E084E090E0FED080E2B6
:1001600087B984E886B910BC82E091E0C9D081E00B
:10017000DADF90E0909301018093000180579109AC
:10018000439710F481E083B92FEF8FE39BE0215078
:1001900080409040E1F700C00000E9CF6FEF7FEFB3
:1001A00081E090E0B1CF0895DC01ED91FC91E73062
:1001B000F10590F4EA5BFF4FF5C06BBB089568BB97
:1001C000089565BB089562BB089563B9089560936F
:1001D00062000895609365000895DC011296ED9128
:1001E000FC911397E730F10590F4E35BFF4FDAC021
:1001F0006BBB089568BB089565BB089562BB089505
:1002000063B908956093620008956093650008954E
:10021000AF92BF92CF92DF92EF92FF920F931F9314
:10022000CF93DF93EC018B018C8181113FC061E0A2
:1002300087E090E083D06C0160E087E090E07ED0C2
:100240005C018CEC9CE10197F1F700C000007801A3
:10025000F594E794F594E794F594E794F594E7948E
:100260009FE0E922FF24B6016E297F29CE019CDFA1
:1002700085E08A95F1F7B5016E297F29CE0194DFDB
:1002800095E09A95F1F70F701127B601602B712B4D
:10029000CE018ADF85E08A95F1F7B501602B712BDD
:1002A000CE0182DF95E09A95F1F71FC061E082E010
:1002B00090E044D06C0160E082E090E03FD07C01AF
:1002C0008CEC9CE10197F1F700C00000B801CE0171
:1002D00084DFB601CE0168DF95E09A95F1F7B701AA
:1002E000CE0162DF85E08A95F1F7DF91CF911F9112
:1002F0000F91FF90EF90DF90CF90BF90AF90089557
:10030000CF93DF93EC018C81811105C068E270E02E
:10031000CE017EDF04C068E370E0CE0179DF6CE0DF
:1003200070E0CE0175DF66E070E0CE0171DF61E064
:1003300070E0CE016DDFDF91CF910895662351F01B
:1003400021E030E0A90102C0440F551F8A95E2F771
:10035000CA01089580E090E00895662311F02FEF20
:1003600001C020E087309105E0F4FC01EC5AFF4F1A
:1003700019C02ABB1BBA089527BB18BA089524BB1D
:1003800015BA089521BB12BA089522B913B8089579
:1003900020936100109262000895209364001092EF
:1003A00065000895EE0FFF1F0024001C0BBE079090
:0A03B000F691E02D0994F894FFCFB8
:00000001FF
