S012000041546D656761313238412E7372656307
S113000045C0000058C0000056C0000054C00000A5
S113001052C0000050C000004EC000004CC00000A0
S11300204AC0000048C0000046C0000044C00000B0
S113003042C0000040C000003EC000003CC00000C0
S11300403AC0000038C0000036C0000034C00000D0
S113005032C0000030C000002EC000002CC00000E0
S11300602AC0000028C0000026C0000024C00000F0
S113007022C0000020C000001EC000001CC0000000
S11300801AC0000018C0000016C0000011241FBED2
S1130090CFEFD0E1DEBFCDBF11E0A0E0B1E0E0E8FA
S11300A0F3E000E00BBF02C007900D92A030B1074F
S11300B0D9F73ED163C1A4CF22E030E02830310526
S11300C084F52817390751F5662311F04FEF01C065
S11300D040E02230310519F44ABB1BBA1FC023305B
S11300E0310519F447BB18BA19C02430310519F485
S11300F044BB15BA13C02530310519F441BB12BAFB
S11301000DC02630310519F442B913B807C02730A1
S1130110310521F440936100109262002F5F3F4F3C
S1130120CDCF089522E030E0283031054CF4261775
S1130130370719F4FC01318320832F5F3F4FF4CF3D
S11301400895FC01808191818230910511F46BBB8B
S113015008958330910511F468BB089584309105A6
S113016011F465BB08958530910511F462BB0895BF
S11301708630910511F463B90895079711F46093DB
S11301806200089521E030E002C0220F331F4A9537
S1130190E2F7A90141602095309521703327662349
S11301A019F0BA01CECF0895B901CBCF08950F93BA
S11301B01F93CF93DF93EC018B018CEC9CE10197AF
S11301C0F1F700C00000759567957595679575956D
S11301D06795759567956F707727CE01B2DF45E017
S11301E050E060E0CE01CEDF46E050E060E0CE01BA
S11301F0C9DF47E050E061E0CE01C4DF95E09A95A5
S1130200F1F747E050E060E0CE01BCDF85E08A957D
S1130210F1F7B8016F707727CE0193DF45E050E026
S113022060E0CE01AFDF46E050E060E0CE01AADF3F
S113023047E050E061E0CE01A5DF95E09A95F1F743
S113024047E050E060E0CE019DDF85E08A95F1F75C
S1130250DF91CF911F910F9108950F931F93CF9327
S1130260DF93EC018B018CEC9CE10197F1F700C06A
S1130270000075956795759567957595679575955E
S113028067956F707727CE015CDF45E050E061E051
S1130290CE0178DF46E050E060E0CE0173DF47E056
S11302A050E061E0CE016EDF95E09A95F1F747E00A
S11302B050E060E0CE0166DF85E08A95F1F7B80191
S11302C06F707727CE013DDF45E050E061E0CE015D
S11302D059DF46E050E060E0CE0154DF47E050E0F3
S11302E061E0CE014FDF95E09A95F1F747E050E0E9
S11302F060E0CE0147DF85E08A95F1F7DF91CF9189
S11303001F910F910895CF93DF93EC0166E070E0A5
S11303104EDF6CE070E0CE014ADF68E270E0CE01AF
S113032046DF61E070E0CE0142DFDF91CF910895B6
S1130330CF93DF93CDB7DEB72E970FB6F894DEBF19
S11303400FBECDBF61E087E090E0B6DE67E070E00D
S1130350CE010196E7DECE010196D5DF60E870E0BC
S1130360CE01019624DF61E370E0CE01019675DFD2
S113037062E370E0CE01019670DFF0CFF894FFCF16
S9030000FC
