S012000041546D656761313238412E7372656307
S11300004DC0000060C000005EC000005CC0000085
S11300105AC0000058C0000056C0000054C0000080
S113002052C0000050C000004EC000004CC0000090
S11300304AC0000048C0000046C0000044C00000A0
S113004042C0000040C000003EC000003CC00000B0
S11300503AC0000038C0000036C0000034C00000C0
S113006032C0000030C000002EC000002CC00000D0
S11300702AC0000028C0000026C0000024C00000E0
S113008022C0000020C000001EC000001301310186
S113009040014F0122015E016F01800111241FBE46
S11300A0CFEFD0E1DEBFCDBF11E0A0E0B1E0E4E9E5
S11300B0F3E000E00BBF02C007900D92A030B1073F
S11300C0D9F702D065C19CCF61E081E090E055D0C2
S11300D060E082E090E051D060E070E080E090E089
S11300E075D060E070E081E090E070D060E070E096
S11300F082E090E06BD060E070E083E090E066D056
S113010068E070E082E090E081D068E070E084E034
S113011090E07CD0789480E090E08F3F910509F0E6
S113012054F499BD88BDEFEFFFE83197F1F700C0B3
S113013000000196F2CF19BC18BC80E090E08F3F1C
S1130140910509F04CF483BDEFEFFFE83197F1F727
S113015000C000000196F3CF13BCDDCF662351F03D
S113016021E030E0A90102C0440F551F8A95E2F74F
S1130170CA01089580E090E00895662311F02FEFFE
S113018001C020E08230910599F02CF4009751F0E1
S1130190019759F008958430910581F064F0059732
S11301A081F008952ABB1BBA089527BB18BA089595
S11301B024BB15BA089521BB12BA089522B913B805
S11301C0089520936100109262000895CF93DF9305
S11301D0EB0161E0C3DF99B7890F89BFC130D10555
S11301E049F0C230D10559F0CD2B69F410926A0060
S11301F01ABE09C08AEA80936A008ABF04C08FEFDE
S113020080936A008ABFDF91CF9108950F931F9363
S1130210CF93DF93EB018830910508F081C0FC0196
S1130220EA5BFF4FACC06830710521F486E683BFFA
S113023012BE76C06930710509F072C08EE683BFC4
S113024012BE6EC06830710521F484E685BD14BC0D
S113025067C06930710509F063C08CE685BD14BCC4
S11302605FC061E080E090E079DF8C0161E087E0CD
S113027090E074DF2FB5802B912B822B8FBD50C063
S113028061E080E090E06ADF8C0161E085E090E06D
S113029065DF2FB5802B912B822B8FBD41C061E090
S11302A080E090E05BDF8C0161E083E090E056DF6A
S11302B02FB5802B912B822B8FBD32C061E080E063
S11302C090E04CDF8C0161E087E090E047DFEBE8F1
S11302D0F0E02081802B912B822B808321C061E070
S11302E080E090E03BDF8C0161E085E090E036DF68
S11302F0EBE8F0E02081802B912B822B808310C0CF
S113030061E080E090E02ADF8C0161E083E090E02E
S113031025DFEBE8F0E02081802B912B822B80837A
S11303208EB581110FC0C830D10529F484E08EBD8B
S11303301DBC1CBC1FC02997E9F48CE08EBD1DBCFC
S11303401CBC18C080918A00811114C0C830D1052A
S113035041F484E080938A0010928900109288000E
S113036009C0299739F48CE080938A00109289009F
S113037010928800DF91CF911F910F910895EE0F95
S1130380FF1F0024001C0BBE0790F691E02D09947A
S1070390F894FFCF0B
S9030000FC
