S011000041546D6567613132382E7372656349
S113000062C0000087C0000085C0000083C00000FB
S113001081C000007FC000007DC000007BC00000E4
S113002079C0000077C00000D0C0000073C0000099
S113003029C300006FC000006DC000006BC0000049
S113004069C0000067C0000065C0000063C0000014
S113005061C000005FC000005DC000005BC0000024
S113006059C0000057C0000055C0000053C0000034
S113007051C000004FC000004DC000004BC0000044
S113008049C0000047C0000045C0000031043304EB
S11300903504370439043B043E044C044E04500434
S11300A052045404560459043006330636063906FD
S11300B03C063F064406F706FE0605070C07130731
S11300C01A072107220411241FBECFEFD0E1DEBF9F
S11300D0CDBF11E0A0E0B1E0EEEFFEE000E00BBF29
S11300E002C007900D92A637B107D9F721E0A6E721
S11300F0B1E001C01D92A239B207E1F710E0C3E6F6
S1130100D0E003C02197FE01EFD6C236D107D1F764
S113011014D0F3C675CF019779F46F3F7F4F61F424
S1130120E6E8F1E0118210821382128285E090E009
S11301309093820180938101089560E080E090E0D3
S113014083D561E085E090E07FD564E070E082E0F3
S113015090E09FD563E070E081E090E09AD581E87B
S113016091E03DD578948FE39FE10197F1F700C0CA
S1130170000080910101882309F142E050E061E030
S113018070E081E891E0BFD462E071E081E891E041
S1130190A7D44BE050E062E070E081E891E0B3D492
S11301A061E171E081E891E09BD49FEF25EA8EE064
S11301B0915020408040E1F700C000008FE39FE1B0
S11301C00197F1F700C00000CECF1F920F920FB637
S11301D00F9211240BB60F922F933F934F935F937B
S11301E06F937F938F939F93AF93BF93CF93EF932B
S11301F0FF9386E891E0F1D580918E0190918F0173
S1130200892B09F42BC280918E0190918F01883043
S1130210910509F4C8C060F48230910509F470C0F6
S11302208430910509F470C0019709F017C212C017
S11302308032910509F432C120F4409709F4E3C0F7
S11302400DC28034910509F474C18038910509F414
S1130250BBC104C21092010180917F018823D9F0AF
S113026090917E01911117C060E070E081E891E007
S113027080D441E050E061E070E081E891E043D453
S113028068E171E081E891E02BD481E08093800102
S113029010920001E3C18111E1C180917E018111BD
S11302A0DDC160E070E081E891E063D441E050E0BA
S11302B061E070E081E891E026D461E271E081E8D8
S11302C091E00ED442E050E062E070E081E891E019
S11302D01AD462E371E081E891E002D42FEF8FE455
S11302E093EC215080409040E1F700C0000060E0B2
S11302F070E081E891E03DD481E080930101AEC1DA
S113030081E080930001AAC11092010180917F01D4
S11303108111A4C180917E018111A0C181E08093EB
S11303207E0160E070E081E891E023D441E050E098
S113033061E070E081E891E0E6D362E471E081E895
S113034091E0CED34CE050E062E070E081E891E0CF
S1130350DAD380917C0190917D016ED4BC0181E857
S113036091E028D380917A0190917B0165D4BC01FE
S113037081E891E01FD36BE471E081E891E0B0D3B0
S1130380809178019091790157D4BC0181E891E082
S113039011D380917601909177014ED4BC0181E80C
S11303A091E008D35BC180917F01811157C1809195
S11303B07E01882309F452C1C1E0C0937F011092E9
S11303C07E0161E070E081E891E0D3D341E050E048
S11303D061E070E081E891E096D36DE471E081E83A
S11303E091E07ED32FEF87EA91E621508040904040
S11303F0E1F700C0000060E070E081E891E0B9D36B
S1130400C09301012BC180917F01811127C180918B
S11304107E01882309F422C180917C0190917D01A1
S11304208530910531F0019690937D0180937C0194
S113043004C010927D0110927C014CE050E062E017
S113044070E081E891E05FD380917C0190917D011F
S1130450F3D3BC0181E891E0ADD280917A0190910F
S11304607B01EAD3BC0181E891E0A4D26BE471E0A2
S113047081E891E035D38091780190917901DCD3C2
S1130480BC0181E891E096D2809176019091770148
S1130490D3D3BC0181E891E08DD2E0C080917F018B
S11304A08111DCC080917E01882309F4D7C080913A
S11304B07A0190917B018930910531F001969093F6
S11304C07B0180937A0104C010927B0110927A011F
S11304D04CE050E062E070E081E891E014D3809158
S11304E07C0190917D01A8D3BC0181E891E062D2A6
S11304F080917A0190917B019FD3BC0181E891E0C6
S113050059D26BE471E081E891E0EAD280917801FC
S11305109091790191D3BC0181E891E04BD2809113
S113052076019091770188D3BC0181E891E042D2B1
S113053095C080917F01811191C080917E018823B3
S113054009F48CC0809178019091790185309105EE
S113055031F00196909379018093780104C0109250
S11305607901109278014CE050E062E070E081E89B
S113057091E0C9D280917C0190917D015DD3BC0151
S113058081E891E017D280917A0190917B0154D354
S1130590BC0181E891E00ED26BE471E081E891E066
S11305A09FD2809178019091790146D3BC0181E872
S11305B091E000D280917601909177013DD3BC0106
S11305C081E891E0F7D14AC080917F01811146C052
S11305D080917E01882309F441C080917601909135
S11305E077018930910531F00196909377018093DA
S11305F0760104C010927701109276014CE050E02D
S113060062E070E081E891E07ED280917C0190917B
S11306107D0112D3BC0181E891E0CCD180917A01B3
S113062090917B0109D3BC0181E891E0C3D16BE4D3
S113063071E081E891E054D2809178019091790140
S1130640FBD2BC0181E891E0B5D180917601909113
S11306507701F2D2BC0181E891E0ACD1FF91EF9136
S1130660CF91BF91AF919F918F917F916F915F9146
S11306704F913F912F910F900BBE0F900FBE0F9093
S11306801F9018951F920F920FB60F9211240BB65C
S11306900F922F933F934F935F936F937F938F9317
S11306A09F93AF93BF93EF93FF938091800188232F
S11306B009F4B5C0809100018111A0C04CE050E064
S11306C062E070E081E891E01ED280917C0190911B
S11306D07D01B2D2BC0181E891E06CD180917A01B4
S11306E090917B01A9D2BC0181E891E063D16BE4D4
S11306F071E081E891E0F4D18091780190917901E1
S11307009BD2BC0181E891E055D180917601909112
S1130710770192D2BC0181E891E04CD180917601BD
S113072090917701019790937701809376019923B3
S11307307CF489E090E09093770180937601809136
S113074078019091790101979093790180937801D0
S1130750809178019091790199237CF485E090E06F
S1130760909379018093780180917A0190917B0133
S1130770019790937B0180937A0180917A01909103
S11307807B0199237CF489E090E090937B01809332
S11307907A0180917C0190917D01019790937D0174
S11307A080937C0180917C0190917D019923BCF51B
S11307B010927D0110927C0110927B0110927A01BB
S11307C010927901109278011092770110927601BB
S11307D061E070E081E891E0CCD141E050E061E07B
S11307E070E081E891E08FD16AE571E081E891E001
S11307F077D11092800110927F0111C061E070E006
S113080081E891E0B6D141E050E061E070E081E838
S113081091E079D16FE571E081E891E061D1FF91D8
S1130820EF91BF91AF919F918F917F916F915F9164
S11308304F913F912F910F900BBE0F900FBE0F90D1
S11308401F9018956FEF7FEF81E090E064CC0895DE
S1130850DC01ED91FC91E730F10590F4EA5BFF4F88
S113086043C36BBB089568BB089565BB089562BB21
S1130870089563B9089560936200089560936500D4
S11308800895DC011296ED91FC911397E730F10580
S113089090F4E35BFF4F28C36BBB089568BB0895D6
S11308A065BB089562BB089563B9089560936200BF
S11308B00895609365000895AF92BF92CF92DF923E
S11308C0EF92FF920F931F93CF93DF93EC018B0171
S11308D08C81811143C061E087E090E09ED16C017E
S11308E060E087E090E099D15C018FE39FE101979C
S11308F0F1F700C000007801F594E794F594E794CB
S1130900F594E794F594E7949FE0E922FF24B60177
S11309106E297F29CE019CDF85E08A95F1F70000DE
S1130920B5016E297F29CE0193DF95E09A95F1F701
S113093000000F701127B601602B712BCE0188DFE8
S113094085E08A95F1F70000B501602B712BCE018B
S11309507FDF95E09A95F1F7000021C061E082E025
S113096090E05BD16C0160E082E090E056D17C01C4
S11309708FE39FE10197F1F700C00000B801CE01B9
S113098080DFB601CE0164DF95E09A95F1F70000AF
S1130990B701CE015DDF85E08A95F1F70000DF91B4
S11309A0CF911F910F91FF90EF90DF90CF90BF9068
S11309B0AF900895AF92BF92CF92DF92EF92FF92E1
S11309C00F931F93CF93DF93EC018B018C818111E3
S11309D04FC061E087E090E020D17C0161E085E0D8
S11309E090E01BD1E82AF92A60E087E090E015D175
S11309F05C0161E085E090E010D1A82AB92A8FE378
S1130A009FE10197F1F700C000006801D594C794F5
S1130A10D594C794D594C794D594C7949FE0C9221C
S1130A20DD24B7016C297D29CE0112DF85E08A958A
S1130A30F1F70000B5016C297D29CE0109DF95E0AD
S1130A409A95F1F700000F701127B701602B712BF5
S1130A50CE01FEDE85E08A95F1F70000B501602B3A
S1130A60712BCE01F5DE95E09A95F1F700002DC0CB
S1130A7061E082E090E0D1D06C0161E080E090E040
S1130A80CCD0C82AD92A60E082E090E0C6D07C01AC
S1130A9061E080E090E0C1D0E82AF92A8FE39FE189
S1130AA00197F1F700C00000B801CE01EADEB601FB
S1130AB0CE01CEDE95E09A95F1F70000B701CE01A4
S1130AC0C7DE85E08A95F1F70000DF91CF911F9191
S1130AD00F91FF90EF90DF90CF90BF90AF9008956B
S1130AE00F931F93CF93DF938C01EB0168816623EF
S1130AF029F070E0C8015EDF2196F8CFDF91CF9135
S1130B001F910F910895CF92DF92EF92FF920F936E
S1130B101F93CF93DF936C018B017A01C0E0D0E087
S1130B20C031D105ECF40130110559F4CE01019620
S1130B308E159F0531F4BE0160587F4FC601BCDE9F
S1130B400DC00230110551F4CE010196E816F906E4
S1130B5029F4BE0160547F4FC601AEDE2196E0CF7A
S1130B60DF91CF911F910F91FF90EF90DF90CF9085
S1130B700895CF93DF93EC0161157105A1F441E071
S1130B8050E061E070E0BFDF65E671E0CE01A8DF10
S1130B9041E050E062E070E0CE01B5DF65E671E06F
S1130BA0CE019EDF19C06130710551F441E050E07F
S1130BB061E070E0A8DF65E671E0CE0191DF0CC072
S1130BC06230710549F441E050E062E070E09BDF7F
S1130BD065E671E0CE0184DFDF91CF910895CF9374
S1130BE0DF93EC018C81811105C068E270E0CE01D5
S1130BF063DE04C068E370E0CE015EDE6CE070E0AA
S1130C00CE015ADE66E070E0CE0156DE61E070E0AF
S1130C10CE0152DEDF91CF910895662351F021E099
S1130C2030E0A90102C0440F551F8A95E2F7CA01BA
S1130C30089580E090E008958A30910510F4C096FC
S1130C40089580E090E00895662311F02FEF01C02D
S1130C5020E087309105E0F4FC01EC5AFF4F44C1D9
S1130C602ABB1BBA089527BB18BA089524BB15BA2A
S1130C70089521BB12BA089522B913B80895209398
S1130C806100109262000895209364001092650040
S1130C9008958130910509F449C01CF4892B41F071
S1130CA008958230910519F1039709F464C00895F9
S1130CB06430710559F461E080E090E0AEDF97B7ED
S1130CC0890F87BF87E083BF12BE08956330710523
S1130CD009F082C061E081E090E09FDF97B7890F5F
S1130CE087BF8FE083BF12BE8FEF81BF089564304A
S1130CF0710559F461E086E090E08FDF97B7890FC2
S1130D0087BF85E085BD14BC08956330710509F083
S1130D1063C061E087E090E080DF97B7890F87BF09
S1130D208DE085BD14BC80EA83BD089564307105EF
S1130D3069F461E082E090E070DF97B7890F87BFC4
S1130D401FBC85E08EBD1DBC1CBC089563307105BD
S1130D5009F042C061E084E090E05FDF97B7890F5B
S1130D6087BF1FBC8DE08EBD1DBC1CBC8DE38BBD3D
S1130D7089E08ABD08956430710599F461E082E0E8
S1130D8090E04BDFEDE7F0E09081890F80831092D3
S1130D908B0085E080938A0010928900109288006D
S1130DA0089563307105C1F461E084E090E035DFBB
S1130DB0EDE7F0E09081890F808310928B008DE045
S1130DC080938A0010928900109288008DE38093AA
S1130DD0870089E0809386000895DC01ED91FC9101
S1130DE01197E730F105A0F5E55AFF4F7DC089B3AF
S1130DF090E015969C938E9314972AC086B390E046
S1130E0015969C938E93149723C083B390E0159604
S1130E109C938E9314971CC080B390E015969C937A
S1130E208E93149715C081B190E015969C938E9380
S1130E3014970EC080B190E015969C938E931497EE
S1130E4007C08091630090E015969C938E9314974D
S1130E5012968D919C91139781309105E9F018F0C9
S1130E60029799F1089516962D913C91179714962F
S1130E708D919C9115978095909582239323199633
S1130E809C938E93189714968D919C911597179611
S1130E909C938E931697089516962D913C911797CF
S1130EA014968D919C9115978223932319969C9364
S1130EB08E93189714968D919C9115978095909583
S1130EC017969C938E931697089514962D913C91A2
S1130ED015971A968D919C911B97822393231996AB
S1130EE09C938E9318970895EE0FFF1F0024001C07
S1110EF00BBE0790F691E02D0994F894FFCF05
S1130EFE0101436F756E7465722053797374656D59
S1130F0E00627920434C4A00436F756E74696E67B4
S1130F1E00506C65617365205075736820535720BB
S1130F2E3300746F20536574207468652054696DA2
S1130F3E65005365742054696D65003A00536574F9
S1130F4E20436F6D706C65746500446F6E65005060
S1130F5E6175736500202020202020202020202071
S1090F6E202020202000D9
S9030000FC
