S011000041546D6567613132382E7372656349
S11300004DC0000060C000005EC000005CC0000085
S11300105AC0000058C0000056C0000054C0000080
S113002052C0000050C000004EC000004CC0000090
S11300304AC0000048C0000046C0000044C00000A0
S113004042C0000040C000003EC000003CC00000B0
S11300503AC0000038C0000036C0000034C00000C0
S113006032C0000030C000002EC000002CC00000D0
S11300702AC0000028C0000026C0000024C00000E0
S113008022C0000020C000001EC00000A600AE0078
S1130090BD00CC00AA00DB00EC00FD0011241FBE53
S11300A0CFEFD0E1DEBFCDBF11E0A0E0B1E0EEEDD7
S11300B0F3E000E00BBF02C007900D92A030B1073F
S11300C0D9F7C1D08AC19CCF662351F021E030E03A
S11300D0A90102C0440F551F8A95E2F7CA01089589
S11300E080E090E00895662311F02FEF01C020E036
S11300F08230910599F02CF4009751F0019759F052
S113010008958430910581F064F0059781F0089595
S11301102ABB1BBA089527BB18BA089524BB15BA85
S1130120089521BB12BA089522B913B808952093F3
S11301306100109262000895CF93DF938830910597
S113014008F06BC0FC01EA5BFF4F3EC18EE683BF43
S113015012BE63C08CE685BD14BC5FC061E080E064
S113016090E0B2DF9FB5892B8FBD61E087E090E01E
S1130170ABDF9FB5892B8FBD50C061E080E090E07C
S1130180A3DF9FB5892B8FBD61E085E090E09CDF04
S11301909FB5892B8FBD41C061E080E090E094DF82
S11301A09FB5892B8FBD61E083E090E08DDF9FB523
S11301B0892B8FBD32C061E080E090E085DFCBE821
S11301C0D0E09881892B888361E087E090E07CDF30
S11301D09881892B888321C061E080E090E074DFFE
S11301E0CBE8D0E09881892B888361E085E090E0BA
S11301F06BDF9881892B888310C061E080E090E0F8
S113020063DFCBE8D0E09881892B888361E083E0C9
S113021090E05ADF9881892B88838EB58C3029F041
S11302208CE08EBD1DBC1CBC0BC080918A008C3040
S113023039F08CE080938A00109289001092880033
S1130240DF91CF91089561E084E090E04CDF85E098
S113025090E072DF86E090E06FDF87E090E06CDF93
S1130260E6E8F0E0118210822FEF39E648E12150F0
S113027030404040E1F700C0000060E470E071836A
S113028060835FEF89E698E1515080409040E1F748
S113029000C0000040E850E051834083AFEFB9E66E
S11302A0C8E1A150B040C040E1F700C0000020EC1C
S11302B030E0318320838FEF99E6A8E181509040AC
S11302C0A040E1F700C000008FEF90E091838083AD
S11302D0BFEFC9E6E8E1B150C040E040E1F700C03B
S11302E00000E4E8F0E011821082AFEFB9E6C8E163
S11302F0A150B040C040E1F700C0000071836083AA
S1130300AFEFB9E6C8E1A150B040C040E1F700C08A
S1130310000051834083AFEFB9E6C8E1A150B0407B
S1130320C040E1F700C0000031832083AFEFB9E69D
S1130330C8E1A150B040C040E1F700C00000918383
S11303408083EFEFF9E6A8E1E150F040A040E1F747
S113035000C00000E2E8F0E011821082BFEFC9E6BD
S1130360A8E1B150C040A040E1F700C00000718393
S11303706083BFEFC9E668E1B150C0406040E1F777
S113038000C00000518340837FEFA9E6B8E17150BB
S1130390A040B040E1F700C0000031832083CFEFDC
S11303A029E638E1C15020403040E1F700C00000A8
S11303B0918380834FEF59E668E14150504060409B
S11303C0E1F700C000004CCFEE0FFF1F0024001C1B
S11103D00BBE0790F691E02D0994F894FFCF30
S9030000FC
