:1000000046C000006BC0000069C0000067C000006F
:1000100065C0000063C0000061C000005FC0000058
:100020005DC00000FBC0000059C0000057C00000C8
:1000300055C0000053C0000051C000004FC0000078
:1000400094C000004BC0000049C0000047C0000041
:1000500045C0000043C0000041C000003FC0000098
:100060003DC000003BC0000039C0000037C00000A8
:1000700035C0000033C0000031C000002FC00000B8
:100080002DC000002BC0000029C00000C5011124B4
:100090001FBECFEFD0E1DEBFCDBF11E0A0E0B1E0E9
:1000A000ECE3F7E000E00BBF02C007900D92A03038
:1000B000B107D9F721E0A0E0B1E001C01D92A03264
:1000C000B207E1F710E0C7E4D0E003C02197FE01DA
:1000D0002AD3C634D107D1F722D02EC391CF0197AE
:1000E000E9F46F3F7F4FD1F482E090E090931C01E0
:1000F00080931B0183E090E0909317018093160199
:10010000EDE0F1E081E090E0918380838283E4E0A0
:10011000F1E024E030E0318320838283089561E0C0
:1001200082E090E06CD161E083E090E068D160E033
:1001300081E090E064D160E084E090E060D167E02D
:1001400070E080E090E084D166E070E082E090E0D2
:100150007FD163E070E08BE191E03DD263E070E03D
:1001600086E191E038D27894FFCF1F920F920FB6BC
:100170000F9211240BB60F922F933F934F935F93DF
:100180006F937F938F939F93AF93BF93EF93FF935F
:100190008DE091E077D28091140190911501892B27
:1001A000A9F080911401909115018130910519F009
:1001B000029731F00BC0109203011092020106C0A9
:1001C00081E090E09093030180930201809102010D
:1001D00090910301019749F461E08BE191E0FFD137
:1001E00060E086E191E0FBD106C08BE191E030D286
:1001F00086E191E02DD2FF91EF91BF91AF919F9158
:100200008F917F916F915F914F913F912F910F90BF
:100210000BBE0F900FBE0F901F9018951F920F925C
:100220000FB60F9211240BB60F922F933F934F935B
:100230005F936F937F938F939F93AF93BF93EF934E
:10024000FF938091020190910301019709F073C01F
:1002500084E091E017D280910B0190910C018430E1
:10026000910539F130F4009709F444C0019759F031
:1002700062C08031910599F18431910529F105978A
:1002800009F059C00BC061E070E08BE191E0A3D1AF
:1002900062E070E086E191E09ED14DC062E070E0E6
:1002A0008BE191E098D163E070E086E191E093D139
:1002B00042C063E070E08BE191E08DD163E070E0DB
:1002C00086E191E088D137C063E070E08BE191E096
:1002D00082D162E070E086E191E07DD12CC062E0E5
:1002E00070E08BE191E077D161E070E086E191E030
:1002F00072D121C08091000190910101019759F4C0
:1003000060E070E08BE191E066D161E070E086E151
:1003100091E061D110C0809100019091010140975E
:1003200051F461E070E08BE191E055D160E070E064
:1003300086E191E050D180910B0190910C01892BC5
:1003400049F080910B0190910C01909301018093F1
:10035000000108C08091000190910101909301017A
:1003600080930001FF91EF91BF91AF919F918F9189
:100370007F916F915F914F913F912F910F900BBEA5
:100380000F900FBE0F901F9018956FEF7FEF81E0D9
:1003900090E0A5CE0895662351F021E030E0A90158
:1003A00002C0440F551F8A95E2F7CA01089580E004
:1003B00090E0089590E0981740F40F920F900F92FC
:1003C0000F900F920F909F5FF6CF08950F931F939A
:1003D000CF93DF938C01C0E0D0E0C017D10750F479
:1003E0008AEFE8DF8AEFE6DF8AEFE4DF8AEFE2DF19
:1003F0002196F3CFDF91CF911F910F91089566233E
:1004000011F02FEF01C020E08230910599F02CF41B
:10041000009751F0019759F008958430910581F0CB
:1004200064F0059781F008952ABB1BBA089527BB95
:1004300018BA089524BB15BA089521BB12BA0895BD
:1004400022B913B8089520936100109262000895B4
:100450008130910509F449C01CF4892B41F00895BD
:100460008230910519F1039709F463C0089567304C
:10047000710559F461E080E090E08DDF97B7890F56
:1004800087BF87E083BF12BE08956630710509F00B
:1004900081C061E081E090E07EDF97B7890F87BF80
:1004A0008FE083BF12BE8FEF81BF08956730710563
:1004B00059F461E086E090E06EDF97B7890F87BF5F
:1004C00085E085BD14BC08956630710509F062C0F1
:1004D00061E087E090E05FDF97B7890F87BF8DE02D
:1004E00085BD14BC80EA83BD08956730710569F449
:1004F00061E082E090E04FDF97B7890F87BF1FBCB4
:1005000085E08EBD1DBC1CBC08956630710509F0E8
:1005100041C061E084E090E03EDF97B7890F87BF7C
:100520001FBC8DE08EBD1DBC1CBC8FEF8BBD8ABD7A
:1005300008956730710599F461E082E090E02BDF67
:10054000EDE7F0E09081890F808310928B0085E0C9
:1005500080938A0010928900109288000895663076
:100560007105C1F461E084E090E015DFEDE7F0E0B3
:100570009081890F808310928B008DE080938A0098
:1005800010928900109288008DE38093870089E0A3
:10059000809386000895FC018081918182309105CD
:1005A00089F028F4009751F0019751F008958430B4
:1005B000910561F048F0059759F008956BBB0895D7
:1005C00068BB089565BB089562BB089563B908953B
:1005D000609362000895FC017383628308950F9312
:1005E0001F93CF93DF93EC016623B1F061E080E0CD
:1005F00090E0D1DE8C0160E081E090E0CCDEB801DB
:10060000682B792BCE01C7DF8A819B81DFDE60E01A
:1006100070E0CE01C0DF15C060E080E090E0BBDE9E
:100620008C0161E081E090E0B6DEB801682B792BA7
:10063000CE01B1DF8A819B81C9DE60E070E0CE012E
:10064000AADF81E08C83DF91CF911F910F910895F4
:100650000F931F93CF93DF938C0160E080E090E0D5
:100660009ADEEC0160E081E090E095DEBE01682B4F
:10067000792BC80190DFF8011482DF91CF911F918F
:100680000F910895FC018081918182309105B9F02C
:1006900028F4009751F0019769F024C08430910547
:1006A000C1F090F00597D1F01DC089B390E094831C
:1006B000838318C086B390E09483838313C083B38D
:1006C00090E0948383830EC080B390E0948383830F
:1006D00009C081B190E09483838304C080B190E02D
:1006E000948383838281882379F025813681838175
:1006F000948180959095822393239087878383812B
:1007000094819683858308952581368183819481A0
:10071000822393239087878383819481809590950A
:10072000968385830895EE0FFF1F0024001C0BBEE7
:0C0730000790F691E02D0994F894FFCF9B
:00000001FF
