S011000041546D6567613132382E7372656349
S113000045C0000060C000005EC000005CC000008D
S11300105AC0000058C0000056C0000054C0000080
S113002052C0000050C000004AC300004CC0000091
S1130030E6C5000048C0000046C0000044C00000FF
S113004042C0000040C000003EC000003CC00000B0
S11300503AC0000038C0000036C0000034C00000C0
S113006032C0000030C000002EC000002CC00000D0
S11300702AC0000028C0000026C0000024C00000E0
S113008022C0000020C000001EC0000011241FBEBA
S1130090CFEFD0E1DEBFCDBF11E0A0E0B1E0E4ECF2
S11300A0FDE000E00BBF02C007900D92A837B10736
S11300B0D9F721E0A8E7B1E001C01D92A239B20747
S11300C0E1F7A5D27DC69CCF662351F021E030E054
S11300D0A90102C0440F551F8A95E2F7CA01089589
S11300E080E090E008958A30910510F4C096089558
S11300F080E090E00895662311F02FEF01C020E026
S11301008230910599F02CF4009751F0019759F041
S113011008958430910581F064F0059781F0089585
S11301202ABB1BBA089527BB18BA089524BB15BA75
S1130130089521BB12BA089522B913B808952093E3
S113014061001092620008958130910509F449C05C
S11301501CF4892B41F008958230910519F103971D
S113016009F464C008956730710559F461E080E0D2
S113017090E0AADF97B7890F87BF87E083BF12BEDD
S113018008956630710509F082C061E081E090E075
S11301909BDF97B7890F87BF8FE083BF12BE8FEFB6
S11301A081BF08956730710559F461E086E090E0FD
S11301B08BDF97B7890F87BF85E085BD14BC089591
S11301C06630710509F063C061E087E090E07CDF90
S11301D097B7890F87BF8DE085BD14BC8FEF83BDB2
S11301E008956730710569F461E082E090E06CDFA6
S11301F097B7890F87BF1FBC85E08EBD1DBC1CBC93
S113020008956630710509F042C061E084E090E031
S11302105BDF97B7890F87BF1FBC8DE08EBD1DBC08
S11302201CBC8DE38BBD89E08ABD089567307105E0
S113023099F461E082E090E047DFEDE7F0E090813F
S1130240890F808310928B0085E080938A0010923E
S1130250890010928800089566307105C1F461E048
S113026084E090E031DFEDE7F0E09081890F808356
S113027010928B008DE080938A0010928900109276
S113028088008DE38093870089E080938600089539
S1130290FC018081918182309105B9F028F40097A6
S11302A051F0019769F024C084309105C1F090F0B9
S11302B00597D1F01DC089B390E09483838318C05F
S11302C086B390E09483838313C083B390E09483D4
S11302D083830EC080B390E09483838309C081B18B
S11302E090E09483838304C080B190E094838383FB
S11302F08281882379F02581368183819481809558
S11303009095822393239087878383819481968316
S11303108583089525813681838194818223932363
S11303209087878383819481809590959683858334
S11303300895FC01808191818230910589F028F42F
S1130340009751F0019751F008958430910561F0C0
S113035048F0059759F008956BBB089568BB08955C
S113036065BB089562BB089563B908956093620004
S11303700895AF92BF92CF92DF92EF92FF920F93C4
S11303801F93CF93DF938C01EB0161E087E090E052
S11303909BDE7C0160E087E090E096DE6C018FE3F9
S11303A09FE10197F1F700C000005E01B594A794A6
S11303B0B594A794B594A794B594A7949FE0A92263
S11303C0BB24B7016A297B29C801B3DF85E08A957C
S11303D0F1F70000B6016A297B29C801AADF95E07C
S11303E09A95F1F70000CF70DD27B7016C2B7D2BB8
S11303F0C8019FDF85E08A95F1F70000B6016C2BF8
S11304007D2BC80196DF95E09A95F1F70000DF9106
S1130410CF911F910F91FF90EF90DF90CF90BF90FD
S1130420AF900895AF92BF92CF92DF92EF92FF9276
S11304300F931F93CF93DF937C01EB0161E087E07F
S113044090E042DE8C0161E085E090E03DDE6C01ED
S1130450082B192B60E087E090E036DEC82AD92A01
S11304608FE39FE10197F1F700C000005E01B594AE
S1130470A794B594A794B594A794B594A7949FE032
S1130480A922BB24B8016A297B29C70152DF85E070
S11304908A95F1F70000B6016A297B29C70149DF73
S11304A095E09A95F1F70000CF70DD27B8016C2B29
S11304B07D2BC7013EDF85E08A95F1F70000B60188
S11304C06C2B7D2BC70135DF95E09A95F1F7000081
S11304D0DF91CF911F910F91FF90EF90DF90CF901C
S11304E0BF90AF9008950F931F93CF93DF938C0128
S11304F0EB016881662329F070E0C80193DF21963F
S1130500F8CFDF91CF911F910F910895CF92DF9291
S1130510EF92FF920F931F93CF93DF936C018B01A4
S11305207A01C0E0D0E0C031D105ECF4013011050E
S113053059F4CE0101968E159F0531F4BE01605821
S11305407F4FC60116DF0DC00230110551F4CE01F4
S11305500196E816F90629F4BE0160547F4FC601DE
S113056008DF2196E0CFDF91CF911F910F91FF908B
S1130570EF90DF90CF900895CF93DF93EC01693033
S11305807105A1F441E050E061E070E0BFDF64E098
S113059071E0CE01A8DF41E050E062E070E0CE01FE
S11305A0B5DF64E071E0CE019EDF19C061307105F2
S11305B051F441E050E061E070E0A8DF64E071E0F4
S11305C0CE0191DF0CC06230710549F441E050E086
S11305D062E070E09BDF64E071E0CE0184DFDF91D4
S11305E0CF910895CF93DF93EC0166E070E0C1DE14
S11305F06CE070E0CE01BDDE68E270E0CE01B9DEF1
S113060061E070E0CE01B5DEDF91CF91089560E046
S113061082E090E070DD61E084E090E06CDD67E012
S113062070E082E090E090DD66E070E081E090E0D0
S11306308BDDE9E8F1E082E090E09183808381E062
S11306408283E6E8F1E024E030E031832083828392
S1130650CF01C8DF78948FE39FE10197F1F700C0E1
S113066000008091020190910301019709F542E095
S113067050E061E070E086E891E048DF65E171E018
S113068086E891E030DF4BE050E062E070E086E81D
S113069091E03CDF64E271E086E891E024DF9FEFC3
S11306A025EA8EE0915020408040E1F700C0000030
S11306B08FE39FE10197F1F700C00000CCCF1F92B8
S11306C00F920FB60F9211240BB60F922F933F93F4
S11306D04F935F936F937F938F939F93AF93BF9346
S11306E0CF93DF93EF93FF9389E891E0D1DD80917D
S11306F0900190919101892B09F46CC28091900131
S1130700909191018830910509F4E9C060F4823038
S1130710910509F483C08430910509F486C00197DA
S113072009F058C212C08032910509F464C120F462
S1130730409709F410C14EC28034910509F4ABC14D
S11307408038910509F4F7C145C210920301109253
S1130750020180918201909183018130910511F50C
S11307602091800130918101232BE1F469E070E054
S113077086E891E001DF41E050E061E070E086E866
S113078091E0C4DE6BE271E086E891E0ACDE81E0EA
S113079090E090938501809384011092010110925E
S11307A0000118C2892B09F015C280918001909133
S11307B08101892B09F00EC269E070E086E891E0BE
S11307C0DBDE41E050E061E070E086E891E09EDE2F
S11307D064E371E086E891E086DE42E050E062E0A6
S11307E070E086E891E092DE65E471E086E891E0ED
S11307F07ADE2FEF8FE493EC215080409040E1F7B4
S113080000C0000069E070E086E891E0B5DE81E0B8
S113081090E09093030180930201DCC181E090E0B9
S11308209093010180930001D5C1109203011092AD
S113083002018091820190918301892B09F0CAC140
S11308408091800190918101892B09F0C3C181E0DD
S113085090E0909381018093800169E070E086E8E4
S113086091E08ADE41E050E061E070E086E891E0EA
S11308704DDE65E571E086E891E035DE4CE050E060
S113088062E070E086E891E041DE80917E01909123
S11308907F0129DCBC0186E891E0C4DD80917C0104
S11308A090917D0120DCBC0186E891E0BBDD6EE522
S11308B071E086E891E017DE80917A0190917B01E6
S11308C012DCBC0186E891E0ADDD80917801909165
S11308D0790109DCBC0186E891E0A4DD7BC180914B
S11308E0820190918301892B09F074C18091800168
S11308F090918101019709F06DC1C1E0D0E0D093DE
S11309008301C0938201109281011092800161E001
S113091070E086E891E030DE41E050E061E070E0B4
S113092086E891E0F3DD60E671E086E891E0DBDDE6
S11309302FEF87EA91E6215080409040E1F700C014
S1130940000069E070E086E891E016DED0930301D0
S1130950C09302013FC18091820190918301892B50
S113096009F038C18091800190918101019709F0CB
S113097031C180917E0190917F018530910531F0E4
S1130980019690937F0180937E0104C010927F01B1
S113099010927E014CE050E062E070E086E891E065
S11309A0B5DD80917E0190917F019DDBBC0186E8DD
S11309B091E038DD80917C0190917D0194DBBC0154
S11309C086E891E02FDD6EE571E086E891E08BDD4D
S11309D080917A0190917B0186DBBC0186E891E0ED
S11309E021DD80917801909179017DDBBC0186E85D
S11309F091E018DDEFC08091820190918301892BF1
S1130A0009F0E8C08091800190918101019709F07B
S1130A10E1C080917C0190917D018930910531F094
S1130A20019690937D0180937C0104C010927D0116
S1130A3010927C014CE050E062E070E086E891E0C6
S1130A4065DD80917E0190917F014DDBBC0186E8DC
S1130A5091E0E8DC80917C0190917D0144DBBC0154
S1130A6086E891E0DFDC6EE571E086E891E03BDD4D
S1130A7080917A0190917B0136DBBC0186E891E09C
S1130A80D1DC80917801909179012DDBBC0186E85D
S1130A9091E0C8DC9FC08091820190918301892BF1
S1130AA009F098C08091800190918101019709F02B
S1130AB091C080917A0190917B018530910531F04C
S1130AC0019690937B0180937A0104C010927B017C
S1130AD010927A014CE050E062E070E086E891E028
S1130AE015DD80917E0190917F01FDDABC0186E8DD
S1130AF091E098DC80917C0190917D01F4DABC0155
S1130B0086E891E08FDC6EE571E086E891E0EBDC4D
S1130B1080917A0190917B01E6DABC0186E891E04C
S1130B2081DC8091780190917901DDDABC0186E85D
S1130B3091E078DC4FC08091820190918301892BF0
S1130B4009F048C08091800190918101019709F0DA
S1130B5041C080917801909179018930910531F0FB
S1130B600196909379018093780104C010927901E1
S1130B70109278014CE050E062E070E086E891E089
S1130B80C5DC80917E0190917F01ADDABC0186E8DD
S1130B9091E048DC80917C0190917D01A4DABC0154
S1130BA086E891E03FDC6EE571E086E891E09BDC4D
S1130BB080917A0190917B0196DABC0186E891E0FC
S1130BC031DC80917801909179018DDABC0186E85D
S1130BD091E028DCFF91EF91DF91CF91BF91AF912C
S1130BE09F918F917F916F915F914F913F912F9141
S1130BF00F900BBE0F900FBE0F901F9018951F9271
S1130C000F920FB60F9211240BB60F922F933F93AE
S1130C104F935F936F937F938F939F93AF93BF9300
S1130C20EF93FF938091840190918501019709F0DE
S1130C30B4C08091000190910101892B09F09CC0FE
S1130C404CE050E062E070E086E891E05FDC809187
S1130C507E0190917F0147DABC0186E891E0E2DBF6
S1130C6080917C0190917D013EDABC0186E891E09F
S1130C70D9DB6EE571E086E891E035DC80917A019C
S1130C8090917B0130DABC0186E891E0CBDB809166
S1130C9078019091790127DABC0186E891E0C2DB02
S1130CA080917801909179010197909379018093D3
S1130CB0780199230CF071C089E090E09093790158
S1130CC08093780180917A0190917B0101979093B0
S1130CD07B0180937A0199230CF05FC085E090E05A
S1130CE090937B0180937A0180917C0190917D01A6
S1130CF0019790937D0180937C0199230CF04DC062
S1130D0089E090E090937D0180937C0180917E0145
S1130D1090917F01019790937F0180937E019923A5
S1130D200CF03BC010927F0110927E0110927D0165
S1130D3010927C0110927B0110927A011092790139
S1130D401092780161E070E086E891E015DC41E002
S1130D5050E061E070E086E891E0D8DB6DE671E098
S1130D6086E891E0C0DB1092850110928401109214
S1130D7083011092820111C061E070E086E891E085
S1130D80FBDB41E050E061E070E086E891E0BEDB2F
S1130D9062E771E086E891E0A6DBFF91EF91BF91F5
S1130DA0AF919F918F917F916F915F914F913F91FF
S1130DB02F910F900BBE0F900FBE0F901F901895A0
S1070DC0F894FFCFD1
S1130DC40100010020202020202020202020202099
S1130DD42020202000436F756E746572205379734C
S1130DE474656D00627920434C4A00436F756E74D8
S1130DF4696E6700506C6561736520507573682073
S1130E045357203300746F2053657420746865202D
S1130E1454696D65005365742054696D65003A0026
S1130E2453657420436F6D706C65746500446F6E14
S10B0E3465005061757365004F
S9030000FC
