:1000000064C00000ECC00000FBC0000085C0000020
:1000100083C0000081C000007FC000007DC00000E0
:100020007BC00000FBC0000077C0000075C000006E
:1000300073C0000071C000006FC000006DC0000000
:100040006BC0000069C0000067C0000065C0000010
:1000500063C0000061C000005FC000005DC0000020
:100060005BC0000059C0000057C0000055C0000030
:1000700053C0000051C000004FC000004DC0000040
:100080004BC0000049C0000047C00000E601E90184
:10009000EC01EF01F201F501FA01D002EE02FD02DE
:1000A0000C03DF021B032C033D03850387038C0332
:1000B000910398039A03A103A803FA030104080417
:1000C0000F0416041D042404C50111241FBECFEF24
:1000D000D0E1DEBFCDBF11E0A0E0B1E0EEE3FBE098
:1000E00000E00BBF02C007900D92A030B107D9F716
:1000F00021E0A0E0B1E001C01D92A731B207E1F715
:1001000010E0C5E6D0E003C02197FE010DD5C4364E
:10011000D107D1F71CD011C573CF0197B9F46F3F48
:100120007F4FA1F4EBE0F1E084E090E091838083E5
:1001300082E090E09383828310920701109206017F
:1001400083E090E09093020180930101089561E0C3
:1001500081E090E02FD160E083E090E02BD160E07F
:1001600084E090E027D161E070E080E090E047D14A
:1001700061E070E081E090E042D163E070E082E015
:1001800090E05DD168E070E080E090E0FCD168E054
:1001900070E083E090E0F7D181E091E013D386E056
:1001A00091E010D369E170E081E091E0D8D269E19B
:1001B00070E086E091E0D3D27894809100018823AA
:1001C00039F081E091E0F3D286E091E0F0D2F5CF12
:1001D00081E091E0F7D286E091E0F4D2EECF1F9279
:1001E0000F920FB60F9211248F93F89481E08093B1
:1001F000000178948F910F900FBE0F901F9018956B
:100200001F920F920FB60F921124F89410920001D2
:1002100078940F900FBE0F901F9018951F920F9219
:100220000FB60F9211240BB60F922F933F934F935B
:100230005F936F937F938F939F93AF93BF93EF934E
:10024000FF9380910001882309F478C065E170E094
:100250008BE091E0C1D28BE091E0C2D2809113019A
:10026000909114018430910539F130F4009709F42C
:1002700044C0019759F062C08031910599F18431F1
:10028000910529F1059709F059C00BC062E170E0B2
:1002900081E091E064D266E170E086E091E05FD2B7
:1002A0004DC066E170E081E091E059D269E170E013
:1002B00086E091E054D242C069E170E081E091E0D3
:1002C0004ED269E170E086E091E049D237C069E141
:1002D00070E081E091E043D266E170E086E091E079
:1002E0003ED22CC066E170E081E091E038D262E15C
:1002F00070E086E091E033D221C0809111019091AD
:100300001201019759F460E070E081E091E027D29A
:1003100062E170E086E091E022D210C0809111018C
:1003200090911201409751F462E170E081E091E018
:1003300016D260E070E086E091E011D2EBE0F1E0EF
:1003400020853185828593852817390729F4868190
:1003500097819783868306C0EBE0F1E080859185E5
:1003600097838683FF91EF91BF91AF919F918F917A
:100370007F916F915F914F913F912F910F900BBEA5
:100380000F900FBE0F901F9018956FEF7FEF81E0D9
:1003900090E0C3CE0895662351F021E030E0A9013A
:1003A00002C0440F551F8A95E2F7CA01089580E004
:1003B00090E00895662311F02FEF01C020E0873010
:1003C0009105E0F4FC01EA5BFF4FAEC32ABB1BBA08
:1003D000089527BB18BA089524BB15BA089521BB08
:1003E00012BA089522B913B80895209361001092AB
:1003F0006200089520936400109265000895CF93E1
:10040000DF93EB0161E0C7DF99B7890F89BFC13086
:10041000D10549F0C230D10559F0CD2B69F41092C5
:100420006A001ABE09C08AEA80936A008ABF04C0C3
:100430008FEF80936A008ABFDF91CF91089581305A
:10044000910509F449C01CF4892B41F008958230CC
:10045000910519F1039709F464C00895643071059A
:1004600059F461E080E090E096DF97B7890F87BF8D
:1004700087E083BF12BE08956330710509F082C022
:1004800061E081E090E087DF97B7890F87BF8FE059
:1004900083BF12BE8FEF81BF08956430710559F498
:1004A00061E086E090E077DF97B7890F87BF85E04E
:1004B00085BD14BC08956330710509F063C061E027
:1004C00087E090E068DF97B7890F87BF8DE085BD33
:1004D00014BC80EA83BD08956430710569F461E05D
:1004E00082E090E058DF97B7890F87BF1FBC85E097
:1004F0008EBD1DBC1CBC08956330710509F042C05F
:1005000061E084E090E047DF97B7890F87BF1FBCA9
:100510008DE08EBD1DBC1CBC8DE38BBD89E08ABD0A
:1005200008956430710599F461E082E090E033DF72
:10053000EDE7F0E09081890F808310928B0085E0D9
:1005400080938A0010928900109288000895633089
:100550007105C1F461E084E090E01DDFEDE7F0E0BB
:100560009081890F808310928B008DE080938A00A8
:1005700010928900109288008DE38093870089E0B3
:100580008093860008950F931F93CF93DF93EB0121
:100590008830910508F081C0FC01E35BFF4FC4C2C5
:1005A0006830710521F486E683BF12BE76C06930DB
:1005B000710509F072C08EE683BF12BE6EC068304E
:1005C000710521F484E685BD14BC67C069307105EE
:1005D00009F063C08CE685BD14BC5FC061E080E0BB
:1005E00090E0D9DE8C0161E087E090E0D4DE2FB5A9
:1005F000802B912B822B8FBD50C061E080E090E07A
:10060000CADE8C0161E085E090E0C5DE2FB5802B6D
:10061000912B822B8FBD41C061E080E090E0BBDE7A
:100620008C0161E083E090E0B6DE2FB5802B912B4A
:10063000822B8FBD32C061E080E090E0ACDE8C01A7
:1006400061E087E090E0A7DEEBE8F0E02081802B1E
:10065000912B822B808321C061E080E090E09BDEC3
:100660008C0161E085E090E096DEEBE8F0E020812F
:10067000802B912B822B808310C061E080E090E082
:100680008ADE8C0161E083E090E085DEEBE8F0E05B
:100690002081802B912B822B80838EB581110FC0FE
:1006A000C830D10529F484E08EBD1DBC1CBC1FC020
:1006B0002997E9F48CE08EBD1DBC1CBC18C080914C
:1006C0008A00811114C0C830D10541F484E08093C0
:1006D0008A00109289001092880009C0299739F485
:1006E0008CE080938A001092890010928800DF913C
:1006F000CF911F910F910895DC01ED91FC91E830AD
:10070000F10560F5EB5AFF4F0FC261BF0895862FC8
:10071000972F9BBD8ABD0895862F972F99BD88BDC1
:100720000895862F972F90937900809378000895ED
:1007300063BD0895862F972F90938700809386003E
:100740000895862F972F90938500809384000895B5
:10075000862F972F90938300809382000895EF92C5
:10076000FF920F931F93CF93DF937C018B01C0E027
:10077000D0E0C536D105A4F4C017D10779F4BE0185
:100780000D2E000C880B990BE0D023E333E343E2FA
:1007900050E43FD1ACD0F701738362832196E9CF57
:1007A000DF91CF911F910F91FF90EF900895CF931C
:1007B000DF93EC016A817B819FDF81E08C83DF9195
:1007C000CF910895CF93DF93EC0160E070E094DF68
:1007D0001C82DF91CF910895FC0173876287089591
:1007E000DC01ED91FC911197E730F105A0F5E35A9A
:1007F000FF4F9AC189B390E015969C938E931497FE
:100800002AC086B390E015969C938E93149723C0CC
:1008100083B390E015969C938E9314971CC080B37D
:1008200090E015969C938E93149715C081B190E03B
:1008300015969C938E9314970EC080B190E01596F8
:100840009C938E93149707C08091630090E0159657
:100850009C938E93149712968D919C91139781304F
:100860009105E9F018F0029799F1089516962D91E7
:100870003C91179714968D919C9115978095909522
:100880008223932319969C938E93189714968D9197
:100890009C91159717969C938E931697089516968C
:1008A0002D913C91179714968D919C9115978223C9
:1008B000932319969C938E93189714968D919C91DF
:1008C00015978095909517969C938E9316970895FB
:1008D00014962D913C9115971A968D919C911B978A
:1008E0008223932319969C938E931897089570D022
:1008F00088F09F5790F0B92F9927B751A0F0D1F009
:10090000660F771F881F991F1AF0BA95C9F712C092
:10091000B13081F077D0B1E0089574C0672F782F9F
:100920008827B85F39F0B93FCCF3869577956795FE
:10093000B395D9F73EF490958095709561957F4F6A
:100940008F4F9F4F0895E89409C097FB3EF4909510
:100950008095709561957F4F8F4F9F4F9923A9F098
:10096000F92F96E9BB279395F69587957795679527
:10097000B795F111F8CFFAF4BB0F11F460FF1BC06B
:100980006F5F7F4F8F4F9F4F16C0882311F096E9FE
:1009900011C0772321F09EE8872F762F05C06623AC
:1009A00071F096E8862F70E060E02AF09A95660F65
:1009B000771F881FDAF7880F9695879597F908951E
:1009C00057FD9058440F551F59F05F3F71F0479500
:1009D000880F97FB991F61F09F3F79F087950895E5
:1009E000121613061406551FF2CF4695F1DF08C004
:1009F000161617061806991FF1CF86957105610521
:100A000008940895E894BB2766277727CB0197F9C8
:100A100008950BD078C069D028F06ED018F09523D7
:100A200009F05AC05FC01124EECFCADFA0F3959F32
:100A3000D1F3950F50E0551F629FF001729FBB27C5
:100A4000F00DB11D639FAA27F00DB11DAA1F649F71
:100A50006627B00DA11D661F829F2227B00DA11D24
:100A6000621F739FB00DA11D621F839FA00D611DAA
:100A7000221F749F3327A00D611D231F849F600DCB
:100A8000211D822F762F6A2F11249F5750408AF004
:100A9000E1F088234AF0EE0FFF1FBB1F661F771F90
:100AA000881F91505040A9F79E3F510570F014C027
:100AB000AACF5F3FECF3983EDCF386957795679578
:100AC000B795F795E7959F5FC1F7FE2B880F911DAE
:100AD0009695879597F9089597F99F6780E870E054
:100AE00060E008959FEF80EC089500240A941616A4
:100AF000170618060906089500240A94121613060C
:100B0000140605060895092E0394000C11F4882399
:100B100052F0BB0F40F4BF2B11F460FF04C06F5FB5
:100B20007F4F8F4F9F4F0895EE0FFF1F0024001C33
:0E0B30000BBE0790F691E02D0994F894FFCFCC
:00000001FF
