S011000041546D6567613132382E7372656349
S113000056C000007BC0000079C0000077C000002B
S113001075C0000073C0000071C000006FC0000014
S11300206DC0000012C1000069C0000067C000007C
S113003065C0000063C0000061C000005FC0000034
S1130040ADC000005BC0000059C0000057C00000F4
S113005055C0000053C0000051C000004FC0000054
S11300604DC000004BC0000049C0000047C0000064
S113007045C0000043C0000041C000003FC0000074
S11300803DC000003BC0000039C00000B802C002FF
S1130090CF02DE02BC02ED02FE020F033E03400368
S11300A045034A03510353035A036103CD01112449
S11300B01FBECFEFD0E1DEBFCDBF11E0A0E0B1E0C5
S11300C0ECE3FAE000E00BBF02C007900D92A03011
S11300D0B107D9F721E0A0E0B1E001C01D92A03240
S11300E0B207E1F710E0C7E5D0E003C02197FE01B5
S11300F09AD4C635D107D1F723D09EC481CF0197B6
S1130100F1F46F3F7F4FD9F481E090E090931C01AC
S113011080931B0182E090E0909317018093160175
S1130120EDE0F1E083E090E09183808381E08283DD
S1130130E4E0F1E024E030E0318320838283089519
S113014061E081E090E03ED160E083E090E03AD16C
S113015060E084E090E036D168E070E080E090E018
S11301605AD167E070E082E090E055D181E090E000
S1130170F5D182E090E0F2D186E191E0DCD28BE12E
S113018091E0D9D264E070E086E191E0A1D264E02C
S113019070E08BE191E09CD27894FFCF1F920F9294
S11301A00FB60F9211240BB60F922F933F934F93D8
S11301B05F936F937F938F939F93AF93BF93EF93CB
S11301C0FF938DE091E0C1D28091140190911501CB
S11301D0892BA9F08091140190911501813091052A
S11301E019F0029731F00BC0109203011092020132
S11301F006C081E090E09093030180930201809116
S1130200020190910301019739F486E191E088D2CB
S11302108BE191E085D206C086E191E08CD28BE13E
S113022091E089D2FF91EF91BF91AF919F918F910E
S11302307F916F915F914F913F912F910F900BBEE2
S11302400F900FBE0F901F9018951F920F920FB62C
S11302500F9211240BB60F922F933F934F935F93FA
S11302606F937F938F939F93AF93BF93EF93FF937A
S11302708091020190910301019709F064C084E028
S113028091E063D280910B0190910C018130910532
S113029039F038F18430910571F04097B9F053C0CA
S11302A062E070E086E191E013D264E070E08BE1FB
S11302B091E00ED248C064E070E086E191E008D29B
S11302C064E070E08BE191E003D23DC064E070E053
S11302D086E191E0FDD162E070E08BE191E0F8D13C
S11302E032C08091000190910101019759F460E0BE
S11302F070E086E191E0ECD162E070E08BE191E0A6
S1130300E7D121C08091000190910101409759F4F7
S113031062E070E086E191E0DBD160E070E08BE1C7
S113032091E0D6D110C08091000190910101049711
S113033051F463E070E086E191E0CAD163E070E0DB
S11303408BE191E0C5D180910B0190910C01892B37
S113035049F080910B0190910C01909301018093DD
S1130360000108C080910001909101019093010166
S113037080930001FF91EF91BF91AF919F918F9175
S11303807F916F915F914F913F912F910F900BBE91
S11303900F900FBE0F901F9018956FEF7FEF81E0C5
S11303A090E0ADCE0895662351F021E030E0A9013C
S11303B002C0440F551F8A95E2F7CA01089580E0F0
S11303C090E00895662311F02FEF01C020E0823001
S11303D0910599F02CF4009751F0019759F0089584
S11303E08430910581F064F0059781F008952ABB6B
S11303F01BBA089527BB18BA089524BB15BA0895EB
S113040021BB12BA089522B913B80895209361004C
S11304101092620008958130910509F449C01CF4DA
S1130420892B41F008958230910519F1039709F45D
S113043063C008956830710559F461E080E090E08C
S1130440B2DF97B7890F87BF87E083BF12BE0895D5
S11304506730710509F081C061E081E090E0A3DFBD
S113046097B7890F87BF8FE083BF12BE8FEF81BF1D
S113047008956830710559F461E086E090E093DFF7
S113048097B7890F87BF85E085BD14BC0895673091
S1130490710509F062C061E087E090E084DF97B7FE
S11304A0890F87BF8DE085BD14BC80EA83BD0895A4
S11304B06830710569F461E082E090E074DF97B719
S11304C0890F87BF1FBC85E08EBD1DBC1CBC089571
S11304D06730710509F041C061E084E090E063DFBA
S11304E097B7890F87BF1FBC8DE08EBD1DBC1CBC98
S11304F08FEF8BBD8ABD08956830710599F461E072
S113050082E090E050DFEDE7F0E09081890F808396
S113051010928B0085E080938A00109289001092DB
S11305208800089567307105C1F461E084E090E0CB
S11305303ADFEDE7F0E09081890F808310928B0021
S11305408DE080938A0010928900109288008DE3D8
S11305508093870089E0809386000895CF93DF938A
S11305608830910508F06BC0FC01EA5BFF4F5BC269
S11305708EE683BF12BE63C08CE685BD14BC5FC02B
S113058061E080E090E00FDF9FB5892B8FBD61E0D3
S113059087E090E008DF9FB5892B8FBD50C061E0F4
S11305A080E090E000DF9FB5892B8FBD61E085E09E
S11305B090E0F9DE9FB5892B8FBD41C061E080E0FA
S11305C090E0F1DE9FB5892B8FBD61E083E090E080
S11305D0EADE9FB5892B8FBD32C061E080E090E0F8
S11305E0E2DECBE8D0E09881892B888361E087E064
S11305F090E0D9DE9881892B888321C061E080E076
S113060090E0D1DECBE8D0E09881892B888361E04B
S113061085E090E0C8DE9881892B888310C061E072
S113062080E090E0C0DECBE8D0E09881892B88831D
S113063061E083E090E0B7DE9881892B88838FB5F1
S1130640843029F084E08EBD1DBC1CBC0BC080919D
S11306508B00843039F084E080938A001092890002
S113066010928800DF91CF910895DC01ED91FC9107
S1130670E830F10560F5E25BFF4FD5C161BF089535
S1130680862F972F9BBD8ABD0895862F972F99BDDE
S113069088BD0895862F972F9093790080937800D2
S11306A0089563BD0895862F972F909387008093B4
S11306B086000895862F972F909385008093840059
S11306C00895862F972F9093830080938200089536
S11306D0EF92FF920F931F93CF93DF937C018B01D3
S11306E0C0E0D0E0C536D105A4F4C017D10779F431
S11306F0BE010D2E000C880B990BA6D023E333E327
S113070043E250E405D172D0F701738362832196EA
S1130710E9CFDF91CF911F910F91FF90EF90089552
S1130720CF93DF93EC016A817B819FDF81E08C832F
S1130730DF91CF910895CF93DF93EC0160E070E0F7
S113074094DF1C82DF91CF910895FC018081918117
S113075082309105B9F028F4009751F0019769F0BF
S113076024C084309105C1F090F00597D1F01DC0EC
S113077089B390E09483838318C086B390E0948314
S1130780838313C083B390E0948383830EC080B3C8
S113079090E09483838309C081B190E09483838340
S11307A004C080B190E0948383838281882379F0AC
S11307B0258136818381948180959095822393232A
S11307C09087878383819481968385830895258187
S11307D036818381948182239323908787838381C5
S11307E094818095909596838583089570D088F040
S11307F09F5790F0B92F9927B751A0F0D1F0660F09
S1130800771F881F991F1AF0BA95C9F712C0B13023
S113081081F077D0B1E0089574C0672F782F8827CE
S1130820B85F39F0B93FCCF3869577956795B39562
S1130830D9F73EF490958095709561957F4F8F4FD1
S11308409F4F0895E89409C097FB3EF490958095D6
S1130850709561957F4F8F4F9F4F9923A9F0F92F82
S113086096E9BB279395F695879577956795B79500
S1130870F111F8CFFAF4BB0F11F460FF1BC06F5FE6
S11308807F4F8F4F9F4F16C0882311F096E911C0F8
S1130890772321F09EE8872F762F05C0662371F019
S11308A096E8862F70E060E02AF09A95660F771F2D
S11308B0881FDAF7880F9695879597F9089557FD5D
S11308C09058440F551F59F05F3F71F04795880FBA
S11308D097FB991F61F09F3F79F087950895121651
S11308E013061406551FF2CF4695F1DF08C01616FD
S11308F017061806991FF1CF8695710561050894AE
S11309000895E894BB2766277727CB0197F90895C4
S11309100BD078C069D028F06ED018F0952309F078
S11309205AC05FC01124EECFCADFA0F3959FD1F364
S1130930950F50E0551F629FF001729FBB27F00D89
S1130940B11D639FAA27F00DB11DAA1F649F6627DE
S1130950B00DA11D661F829F2227B00DA11D621F2D
S1130960739FB00DA11D621F839FA00D611D221FE7
S1130970749F3327A00D611D231F849F600D211DCB
S1130980822F762F6A2F11249F5750408AF0E1F06E
S113099088234AF0EE0FFF1FBB1F661F771F881FB7
S11309A091505040A9F79E3F510570F014C0AACF52
S11309B05F3FECF3983EDCF3869577956795B795A2
S11309C0F795E7959F5FC1F7FE2B880F911D9695CC
S11309D0879597F9089597F99F6780E870E060E03C
S11309E008959FEF80EC089500240A9416161706C4
S11309F018060906089500240A941216130614060C
S1130A0005060895092E0394000C11F4882352F06E
S1130A10BB0F40F4BF2B11F460FF04C06F5F7F4F26
S1130A208F4F9F4F0895EE0FFF1F0024001C0BBE35
S10F0A300790F691E02D0994F894FFCF94
S9030000FC
