S011000041546D6567613132382E7372656349
S113000045C0000058C0000056C0000054C00000A5
S113001052C0000050C000004EC000004CC00000A0
S11300204AC0000048C0000046C0000044C00000B0
S113003042C0000040C000003EC000003CC00000C0
S11300403AC0000038C0000036C0000034C00000D0
S113005032C0000030C000002EC000002CC00000E0
S11300602AC0000028C0000026C0000024C00000F0
S113007022C0000020C000001EC000001CC0000000
S11300801AC0000018C0000016C0000011241FBED2
S1130090CFEFD0E1DEBFCDBF11E0A0E0B1E0EAEEEA
S11300A0F4E000E00BBF02C007900D92A832B10744
S11300B0D9F7C3D118C2A4CF662351F021E030E0B0
S11300C0A90102C0440F551F8A95E2F7CA01089599
S11300D080E090E00895662311F02FEF01C020E046
S11300E08230910599F02CF4009751F0019759F062
S11300F008958430910581F064F0059781F00895A6
S11301002ABB1BBA089527BB18BA089524BB15BA95
S1130110089521BB12BA089522B913B80895209303
S11301206100109262000895FC0180819181823007
S11301309105B9F028F4009751F0019769F024C0B3
S113014084309105C1F090F00597D1F01DC089B3BA
S113015090E09483838318C086B390E09483838370
S113016013C083B390E0948383830EC080B390E084
S11301709483838309C081B190E09483838304C012
S113018080B190E0948383838281882379F02581F0
S113019036818381948180959095822393239087DF
S11301A0878383819481968385830895258136810D
S11301B0838194818223932390878783838194818D
S11301C080959095968385830895FC018081918123
S11301D08230910589F028F4009751F0019751F08D
S11301E008958430910561F048F0059759F0089519
S11301F06BBB089568BB089565BB089562BB089501
S113020063B90895609362000895AF92BF92CF924C
S1130210DF92EF92FF920F931F93CF93DF938C01A2
S1130220EB0161E087E090E047DF7C0160E087E07C
S113023090E042DF6C018FE39FE10197F1F700C08A
S113024000005E01B594A794B594A794B594A794BF
S1130250B594A7949FE0A922BB24B7016A297B29FE
S1130260C801B3DF85E08A95F1F70000B6016A2979
S11302707B29C801AADF95E09A95F1F70000CF70B9
S1130280DD27B7016C2B7D2BC8019FDF85E08A95A4
S1130290F1F70000B6016C2B7D2BC80196DF95E0C9
S11302A09A95F1F70000DF91CF911F910F91FF9084
S11302B0EF90DF90CF90BF90AF900895AF92BF9230
S11302C0CF92DF92EF92FF920F931F93CF93DF931E
S11302D07C01EB0161E087E090E0EEDE8C0161E0FF
S11302E085E090E0E9DE6C01082B192B60E087E0E3
S11302F090E0E2DEC82AD92A8FE39FE10197F1F763
S113030000C000005E01B594A794B594A794B59479
S1130310A794B594A7949FE0A922BB24B8016A29A5
S11303207B29C70152DF85E08A95F1F70000B60109
S11303306A297B29C70149DF95E09A95F1F7000006
S1130340CF70DD27B8016C2B7D2BC7013EDF85E024
S11303508A95F1F70000B6016C2B7D2BC70135DFC0
S113036095E09A95F1F70000DF91CF911F910F91DD
S1130370FF90EF90DF90CF90BF90AF9008950F93D0
S11303801F93CF93DF938C01EB016881662329F0DF
S113039070E0C80193DF2196F8CFDF91CF911F91D0
S11303A00F910895CF92DF92EF92FF920F931F93D4
S11303B0CF93DF936C018B017A01C0E0D0E0C031B0
S11303C0D105ECF40130110559F4CE0101968E15D6
S11303D09F0531F4BE0160587F4FC60116DF0DC082
S11303E00230110551F4CE010196E816F90629F4FC
S11303F0BE0160547F4FC60108DF2196E0CFDF9134
S1130400CF911F910F91FF90EF90DF90CF900895BF
S1130410CF93DF93EC0166E070E0F7DE6CE070E010
S1130420CE01F3DE68E270E0CE01EFDE61E070E061
S1130430CE01EBDEDF91CF910895CF93DF93CDB75B
S1130440DEB72C970FB6F894DEBF0FBECDBF61E0C8
S113045080E090E040DE60E082E090E03CDE61E03D
S113046085E090E038DE82E090E09A83898311E0B1
S11304701B8385E090E09B878A871C87CE010A96C0
S1130480C7DF1BBBCE0101964FDE88859985892B7A
S113049089F0888599858130910519F0029729F0B2
S11304A009C08BB3880F8BBB05C08BB390E09595C7
S11304B087958BBB43E050E061E070E0CE010A9683
S11304C071DF61E171E0CE010A9659DF4BE050E043
S11304D062E070E0CE010A9665DF60E271E0CE0171
S10D04E00A964DDFCFCFF894FFCF4A
S11304EA20202020202020202020202020202020FE
S11304FA0054657374696E672053797374656D006B
S10B050A627920434C4A000011
S9030000FC
