:1000000046C000006BC0000069C0000067C000006F
:1000100065C0000063C0000061C000005FC0000058
:100020005DC000005BC0000059C0000057C0000068
:1000300055C0000053C0000051C000004FC0000078
:100040004DC000004BC0000049C0000047C0000088
:1000500045C0000043C0000041C000003FC0000098
:100060003DC000003BC0000039C0000037C00000A8
:1000700035C0000033C0000031C000002FC00000B8
:100080002DC000002BC0000029C0000097011124E2
:100090001FBECFEFD0E1DEBFCDBF11E0A0E0B1E0E9
:1000A000E0E5F3E000E00BBF02C007900D92A03046
:1000B000B107D9F721E0A0E0B1E001C01D92A23163
:1000C000B207E1F710E0C7E4D0E003C02197FE01DA
:1000D00034D1C634D107D1F7F1D038C191CF0197CF
:1000E00081F46F3F7F4F69F4E9E0F1E081E090E057
:1000F00091838083828383E090E0909301018093D9
:1001000000010895662351F021E030E0A90102C00A
:10011000440F551F8A95E2F7CA01089580E090E0E8
:100120000895662311F02FEF01C020E08230910581
:1001300099F02CF4009751F0019759F0089584300C
:10014000910581F064F0059781F008952ABB1BBAF0
:10015000089527BB18BA089524BB15BA089521BB8A
:1001600012BA089522B913B808952093610010922D
:10017000620008958130910509F449C01CF4892B6F
:1001800041F008958230910519F1039709F464C094
:1001900008956730710559F461E080E090E0B2DFC6
:1001A00097B7890F87BF87E083BF12BE0895663077
:1001B000710509F082C061E081E090E0A3DF97B7AC
:1001C000890F87BF8FE083BF12BE8FEF81BF089575
:1001D0006730710559F461E086E090E093DF97B7EE
:1001E000890F87BF85E085BD14BC08956630710511
:1001F00009F063C061E087E090E084DF97B7890F82
:1002000087BF8DE085BD14BC8FEF83BD0895673037
:10021000710569F461E082E090E074DF97B7890FBF
:1002200087BF1FBC85E08EBD1DBC1CBC0895663019
:10023000710509F042C061E084E090E063DF97B7A8
:10024000890F87BF1FBC8DE08EBD1DBC1CBC8DE31C
:100250008BBD89E08ABD08956730710599F461E02E
:1002600082E090E04FDFEDE7F0E09081890F80833E
:1002700010928B0085E080938A0010928900109282
:100280008800089566307105C1F461E084E090E073
:1002900039DFEDE7F0E09081890F808310928B00C9
:1002A0008DE080938A0010928900109288008DE37F
:1002B0008093870089E080938600089560E080E065
:1002C00090E02FDF60E081E090E02BDF61E083E0F1
:1002D00090E027DF67E070E080E090E04BDF66E0D1
:1002E00070E081E090E046DF789481E082BB2FEF00
:1002F00087EA91E6215080409040E1F700C000007D
:1003000082E082BB2FEF87EA91E621508040904047
:10031000E1F700C0000083E082BB2FEF87EA91E69F
:10032000215080409040E1F700C00000DECF6FEF29
:100330007FEF81E090E0D3CE0895EE0FFF1F002401
:10034000001C0BBE0790F691E02D0994F894FFCFA6
:00000001FF
