:1000000046C000006BC0000069C0000067C000006F
:1000100065C0000063C0000061C000005FC0000058
:100020005DC000005BC00000D7C3000057C00000E7
:1000300073C6000053C0000051C000004FC0000054
:100040004DC000004BC0000049C0000047C0000088
:1000500045C0000043C0000041C000003FC0000098
:100060003DC000003BC0000039C0000037C00000A8
:1000700035C0000033C0000031C000002FC00000B8
:100080002DC000002BC0000029C000006D07112406
:100090001FBECFEFD0E1DEBFCDBF11E0A0E0B1E0E9
:1000A000ECEFFEE000E00BBF02C007900D92A83716
:1000B000B107D9F721E0A8E7B1E001C01D92A4394A
:1000C000B207E1F710E0C7E4D0E003C02197FE01DA
:1000D0000AD7C634D107D1F735D30EC791CF0197D0
:1000E00091F46F3F7F4F79F4EBE8F1E082E090E02C
:1000F0009183808381E08283E6E8F1E084E090E010
:100100009183808314820895662351F021E030E0CA
:10011000A90102C0440F551F8A95E2F7CA0108954C
:1001200080E090E008958A30910510F4C09608951B
:1001300080E090E00895662311F02FEF01C020E0E9
:100140008230910599F02CF4009751F0019759F005
:1001500008958430910581F064F0059781F0089549
:100160002ABB1BBA089527BB18BA089524BB15BA39
:10017000089521BB12BA089522B913B808952093A7
:1001800061001092620008958130910509F449C020
:100190001CF4892B41F008958230910519F10397E1
:1001A00009F464C008956730710559F461E080E096
:1001B00090E0AADF97B7890F87BF87E083BF12BEA1
:1001C00008956630710509F082C061E081E090E039
:1001D0009BDF97B7890F87BF8FE083BF12BE8FEF7A
:1001E00081BF08956730710559F461E086E090E0C1
:1001F0008BDF97B7890F87BF85E085BD14BC089555
:100200006630710509F063C061E087E090E07CDF53
:1002100097B7890F87BF8DE085BD14BC8FEF83BD75
:1002200008956730710569F461E082E090E06CDF69
:1002300097B7890F87BF1FBC85E08EBD1DBC1CBC56
:1002400008956630710509F042C061E084E090E0F5
:100250005BDF97B7890F87BF1FBC8DE08EBD1DBCCC
:100260001CBC8DE38BBD89E08ABD089567307105A4
:1002700099F461E082E090E047DFEDE7F0E0908103
:10028000890F808310928B0085E080938A00109202
:10029000890010928800089566307105C1F461E00C
:1002A00084E090E031DFEDE7F0E09081890F80831A
:1002B00010928B008DE080938A001092890010923A
:1002C00088008DE38093870089E0809386000895FD
:1002D000FC018081918182309105B9F028F400976A
:1002E00051F0019769F024C084309105C1F090F07D
:1002F0000597D1F01DC089B390E09483838318C023
:1003000086B390E09483838313C083B390E0948397
:1003100083830EC080B390E09483838309C081B14E
:1003200090E09483838304C080B190E094838383BE
:100330008281882379F0258136818381948180951B
:1003400090958223932390878783838194819683DA
:100350008583089525813681838194818223932327
:1003600090878783838194818095909596838583F8
:100370000895FC01808191818230910589F028F4F3
:10038000009751F0019751F008958430910561F084
:1003900048F0059759F008956BBB089568BB089520
:1003A00065BB089562BB089563B9089560936200C8
:1003B0000895FC01828193818230910589F028F4AF
:1003C000009751F0019751F008958430910561F044
:1003D00048F0059759F008956BBB089568BB0895E0
:1003E00065BB089562BB089563B908956093620088
:1003F0000895AF92BF92CF92DF92EF92FF920F9348
:100400001F93CF93DF93EC018B018C81811143C04B
:1004100061E087E090E078DE6C0160E087E090E0EA
:1004200073DE5C018FE39FE10197F1F700C00000EC
:100430007801F594E794F594E794F594E794F594AE
:10044000E7949FE0E922FF24B6016E297F29CE01BF
:1004500090DF85E08A95F1F70000B5016E297F29CC
:10046000CE0187DF95E09A95F1F700000F70112714
:10047000B601602B712BCE017CDF85E08A95F1F708
:100480000000B501602B712BCE0173DF95E09A95CA
:10049000F1F7000021C061E082E090E035DE6C0100
:1004A00060E082E090E030DE7C018FE39FE1019725
:1004B000F1F700C00000B801CE017BDFB601CE012C
:1004C00058DF95E09A95F1F70000B701CE0151DFB2
:1004D00085E08A95F1F70000DF91CF911F910F9190
:1004E000FF90EF90DF90CF90BF90AF900895AF92C4
:1004F000BF92CF92DF92EF92FF920F931F93CF9311
:10050000DF93EC018B018C8181114BC061E087E0AE
:1005100090E0FADD7C0161E085E090E0F5DD5C01D2
:10052000E82AF92A60E087E090E0EEDDA82AB92AFF
:100530008FE39FE10197F1F700C000006801D594B7
:10054000C794D594C794D594C794D594C7949FE085
:10055000C922DD24B7016C297D29CE010ADF85E09F
:100560008A95F1F70000B5016C297D29CE0101DFE4
:1005700095E09A95F1F700000F701127B701602BF5
:10058000712BCE01F6DE85E08A95F1F70000B5010A
:10059000602B712BCE01EDDE95E09A95F1F700000E
:1005A00029C061E082E090E0AFDD6C0161E080E0B5
:1005B00090E0AADD7C01C82AD92A60E082E090E0C0
:1005C000A3DDE82AF92A8FE39FE10197F1F700C044
:1005D0000000B801CE01EDDEB601CE01CADE95E025
:1005E0009A95F1F70000B701CE01C3DE85E08A9548
:1005F000F1F70000DF91CF911F910F91FF90EF90E5
:10060000DF90CF90BF90AF9008950F931F93CF933B
:10061000DF938C01EB016881662329F070E0C8014B
:1006200066DF2196F8CFDF91CF911F910F9108954A
:10063000CF92DF92EF92FF920F931F93CF93DF93AE
:100640006C018B017A01C0E0D0E0C031D105ECF43F
:100650000130110559F4CE0101968E159F0531F434
:10066000BE0160587F4FC601C4DE0DC002301105C7
:1006700051F4CE010196E816F90629F4BE01605442
:100680007F4FC601B6DE2196E0CFDF91CF911F915B
:100690000F91FF90EF90DF90CF900895CF93DF936D
:1006A000EC0169307105A1F441E050E061E070E0D7
:1006B000BFDF64E071E0CE01A8DF41E050E062E01E
:1006C00070E0CE01B5DF64E071E0CE019EDF19C0BD
:1006D0006130710551F441E050E061E070E0A8DF65
:1006E00064E071E0CE0191DF0CC06230710549F425
:1006F00041E050E062E070E09BDF64E071E0CE0139
:1007000084DFDF91CF910895CF93DF93EC018C814B
:10071000811105C068E270E0CE016BDE04C068E3C1
:1007200070E0CE0166DE6CE070E0CE0162DE66E075
:1007300070E0CE015EDE61E070E0CE015ADEDF9156
:10074000CF91089560E082E090E0F5DC61E084E024
:1007500090E0F1DC67E070E082E090E015DD66E0BB
:1007600070E081E090E010DD86E891E0CDDF7894E4
:100770008FE39FE10197F1F700C000008091020133
:1007800090910301019709F542E050E061E070E0CB
:1007900086E891E04DDF65E171E086E891E035DFC4
:1007A0004BE050E062E070E086E891E041DF64E217
:1007B00071E086E891E029DF9FEF25EA8EE0915015
:1007C00020408040E1F700C000008FE39FE10197E7
:1007D000F1F700C00000CCCF1F920F920FB60F921E
:1007E00011240BB60F922F933F934F935F936F9308
:1007F0007F938F939F93AF93BF93CF93DF93EF93A9
:10080000FF938BE891E064DD8091920190919301D8
:10081000892B09F46CC280919201909193018830E8
:10082000910509F4E9C060F48230910509F483C0B0
:100830008430910509F486C0019709F058C212C0AE
:100840008032910509F464C120F4409709F410C185
:100850004EC28034910509F4ABC18038910509F48A
:10086000F7C145C2109203011092020180918201EA
:10087000909183018130910511F520918001309193
:100880008101232BE1F469E070E086E891E006DF66
:1008900041E050E061E070E086E891E0C9DE6BE2A3
:1008A00071E086E891E0B1DE81E090E0909385010F
:1008B00080938401109201011092000118C2892BCB
:1008C00009F015C28091800190918101892B09F076
:1008D0000EC269E070E086E891E0E0DE41E050E0C1
:1008E00061E070E086E891E0A3DE64E371E086E811
:1008F00091E08BDE42E050E062E070E086E891E05B
:1009000097DE65E471E086E891E07FDE2FEF8FE40B
:1009100093EC215080409040E1F700C0000069E076
:1009200070E086E891E0BADE81E090E09093030108
:1009300080930201DCC181E090E0909301018093FB
:100940000001D5C110920301109202018091820131
:1009500090918301892B09F0CAC180918001909107
:100960008101892B09F0C3C181E090E0909381015E
:100970008093800169E070E086E891E08FDE41E0DD
:1009800050E061E070E086E891E052DE65E571E0FC
:1009900086E891E03ADE4CE050E062E070E086E804
:1009A00091E046DE80917E0190917F01BCDBBC012D
:1009B00086E891E09CDD80917C0190917D01B3DB24
:1009C000BC0186E891E093DD6EE571E086E891E098
:1009D0001CDE80917A0190917B01A5DBBC0186E849
:1009E00091E085DD80917801909179019CDBBC01DB
:1009F00086E891E07CDD7BC180918201909183014A
:100A0000892B09F074C18091800190918101019737
:100A100009F06DC1C1E0D0E0D0938301C0938201A1
:100A2000109281011092800161E070E086E891E00F
:100A300035DE41E050E061E070E086E891E0F8DD0D
:100A400060E671E086E891E0E0DD2FEF87EA91E66D
:100A5000215080409040E1F700C0000069E070E064
:100A600086E891E01BDED0930301C09302013FC1F1
:100A70008091820190918301892B09F038C1809186
:100A8000800190918101019709F031C180917E012F
:100A900090917F018530910531F0019690937F010F
:100AA00080937E0104C010927F0110927E014CE081
:100AB00050E062E070E086E891E0BADD80917E016E
:100AC00090917F0130DBBC0186E891E010DD8091E0
:100AD0007C0190917D0127DBBC0186E891E007DD78
:100AE0006EE571E086E891E090DD80917A01909169
:100AF0007B0119DBBC0186E891E0F9DC809178018B
:100B00009091790110DBBC0186E891E0F0DCEFC048
:100B10008091820190918301892B09F0E8C0809136
:100B2000800190918101019709F0E1C080917C01E1
:100B300090917D018930910531F0019690937D016E
:100B400080937C0104C010927D0110927C014CE0E6
:100B500050E062E070E086E891E06ADD80917E011D
:100B600090917F01E0DABC0186E891E0C0DC8091E1
:100B70007C0190917D01D7DABC0186E891E0B7DC79
:100B80006EE571E086E891E040DD80917A01909118
:100B90007B01C9DABC0186E891E0A9DC809178018B
:100BA00090917901C0DABC0186E891E0A0DC9FC099
:100BB0008091820190918301892B09F098C08091E6
:100BC000800190918101019709F091C080917A0193
:100BD00090917B018530910531F0019690937B01D6
:100BE00080937A0104C010927B0110927A014CE04C
:100BF00050E062E070E086E891E01ADD80917E01CD
:100C000090917F0190DABC0186E891E070DC8091E0
:100C10007C0190917D0187DABC0186E891E067DC78
:100C20006EE571E086E891E0F0DC80917A019091C8
:100C30007B0179DABC0186E891E059DC809178018A
:100C40009091790170DABC0186E891E050DC4FC0E8
:100C50008091820190918301892B09F048C0809195
:100C6000800190918101019709F041C08091780144
:100C7000909179018930910531F001969093790135
:100C80008093780104C010927901109278014CE0B1
:100C900050E062E070E086E891E0CADC80917E017D
:100CA00090917F0140DABC0186E891E020DC8091E0
:100CB0007C0190917D0137DABC0186E891E017DC78
:100CC0006EE571E086E891E0A0DC80917A01909178
:100CD0007B0129DABC0186E891E009DC809178018A
:100CE0009091790120DABC0186E891E000DCFF9167
:100CF000EF91DF91CF91BF91AF919F918F917F91B4
:100D00006F915F914F913F912F910F900BBE0F907C
:100D10000FBE0F901F9018951F920F920FB60F9253
:100D200011240BB60F922F933F934F935F936F93C2
:100D30007F938F939F93AF93BF93EF93FF93809194
:100D4000840190918501019709F0B4C08091000160
:100D500090910101892B09F09CC04CE050E062E0C9
:100D600070E086E891E064DC80917E0190917F01E3
:100D7000DAD9BC0186E891E0BADB80917C019091E0
:100D80007D01D1D9BC0186E891E0B1DB6EE571E06F
:100D900086E891E03ADC80917A0190917B01C3D999
:100DA000BC0186E891E0A3DB809178019091790104
:100DB000BAD9BC0186E891E09ADB809178019091E4
:100DC00079010197909379018093780199230CF030
:100DD00071C089E090E090937901809378018091CF
:100DE0007A0190917B01019790937B0180937A0126
:100DF00099230CF05FC085E090E090937B01809395
:100E00007A0180917C0190917D01019790937D0101
:100E100080937C0199230CF04DC089E090E0909381
:100E20007D0180937C0180917E0190917F010197EB
:100E300090937F0180937E0199230CF03BC0109228
:100E40007F0110927E0110927D0110927C01109220
:100E50007B0110927A01109279011092780161E081
:100E600070E086E891E01ADC41E050E061E070E07B
:100E700086E891E0DDDB6DE671E086E891E0C5DBB8
:100E800010928501109284011092830110928201C8
:100E900011C061E070E086E891E000DC41E050E0E4
:100EA00061E070E086E891E0C3DB62E771E086E82C
:100EB00091E0ABDBFF91EF91BF91AF919F918F914B
:100EC0007F916F915F914F913F912F910F900BBE4A
:100ED0000F900FBE0F901F9018956FEF7FEF81E07E
:100EE00090E0FDC80895EE0FFF1F0024001C0BBE0C
:0C0EF0000790F691E02D0994F894FFCFD4
:100EFC000100010020202020202020202020202064
:100F0C002020202000436F756E7465722053797316
:100F1C0074656D00627920434C4A00436F756E74A2
:100F2C00696E6700506C656173652050757368203D
:100F3C005357203300746F205365742074686520F8
:100F4C0054696D65005365742054696D65003A00F1
:100F5C0053657420436F6D706C65746500446F6EDF
:080F6C0065005061757365001A
:00000001FF
